{
  "_format": "hh-sol-artifact-1",
  "contractName": "VaultFactory",
  "sourceName": "contracts/VaultFactory.sol",
  "abi": [
    {
      "inputs": [],
      "name": "IncorrectTotalPayout",
      "type": "error"
    },
    {
      "inputs": [],
      "name": "InvalidVaultId",
      "type": "error"
    },
    {
      "inputs": [],
      "name": "MilestoneAmountsCannotBeZero",
      "type": "error"
    },
    {
      "inputs": [],
      "name": "MismatchedArrays",
      "type": "error"
    },
    {
      "inputs": [],
      "name": "NoMilestonesToPay",
      "type": "error"
    },
    {
      "inputs": [],
      "name": "NotTheFunder",
      "type": "error"
    },
    {
      "inputs": [],
      "name": "ReentrancyGuardReentrantCall",
      "type": "error"
    },
    {
      "inputs": [],
      "name": "ReleaseTimeNotMet",
      "type": "error"
    },
    {
      "inputs": [],
      "name": "VaultIsFinalized",
      "type": "error"
    },
    {
      "inputs": [],
      "name": "ZeroAddress",
      "type": "error"
    },
    {
      "anonymous": false,
      "inputs": [
        {
          "indexed": true,
          "internalType": "uint256",
          "name": "vaultId",
          "type": "uint256"
        },
        {
          "indexed": false,
          "internalType": "uint256",
          "name": "totalAmount",
          "type": "uint256"
        }
      ],
      "name": "FundsDistributed",
      "type": "event"
    },
    {
      "anonymous": false,
      "inputs": [
        {
          "indexed": true,
          "internalType": "uint256",
          "name": "vaultId",
          "type": "uint256"
        },
        {
          "indexed": true,
          "internalType": "address",
          "name": "beneficiary",
          "type": "address"
        },
        {
          "indexed": false,
          "internalType": "uint256",
          "name": "amount",
          "type": "uint256"
        }
      ],
      "name": "MilestoneReleased",
      "type": "event"
    },
    {
      "anonymous": false,
      "inputs": [
        {
          "indexed": true,
          "internalType": "uint256",
          "name": "vaultId",
          "type": "uint256"
        }
      ],
      "name": "VaultCompleted",
      "type": "event"
    },
    {
      "anonymous": false,
      "inputs": [
        {
          "indexed": true,
          "internalType": "uint256",
          "name": "vaultId",
          "type": "uint256"
        },
        {
          "indexed": true,
          "internalType": "address",
          "name": "funder",
          "type": "address"
        },
        {
          "indexed": false,
          "internalType": "address",
          "name": "beneficiary",
          "type": "address"
        },
        {
          "indexed": false,
          "internalType": "enum VaultFactory.VaultType",
          "name": "vaultType",
          "type": "uint8"
        },
        {
          "indexed": false,
          "internalType": "uint256",
          "name": "totalAmount",
          "type": "uint256"
        }
      ],
      "name": "VaultCreated",
      "type": "event"
    },
    {
      "inputs": [
        {
          "internalType": "address",
          "name": "",
          "type": "address"
        },
        {
          "internalType": "uint256",
          "name": "",
          "type": "uint256"
        }
      ],
      "name": "beneficiaryVaultIds",
      "outputs": [
        {
          "internalType": "uint256",
          "name": "",
          "type": "uint256"
        }
      ],
      "stateMutability": "view",
      "type": "function"
    },
    {
      "inputs": [
        {
          "internalType": "address",
          "name": "_beneficiary",
          "type": "address"
        },
        {
          "internalType": "address",
          "name": "_token",
          "type": "address"
        },
        {
          "internalType": "uint256[]",
          "name": "_milestonePayouts",
          "type": "uint256[]"
        },
        {
          "internalType": "string",
          "name": "_termsCID",
          "type": "string"
        }
      ],
      "name": "createMilestoneVault",
      "outputs": [],
      "stateMutability": "nonpayable",
      "type": "function"
    },
    {
      "inputs": [
        {
          "internalType": "address",
          "name": "_token",
          "type": "address"
        },
        {
          "internalType": "uint256",
          "name": "_amount",
          "type": "uint256"
        },
        {
          "internalType": "uint256",
          "name": "_releaseTime",
          "type": "uint256"
        },
        {
          "internalType": "string",
          "name": "_termsCID",
          "type": "string"
        }
      ],
      "name": "createPrizePoolVault",
      "outputs": [],
      "stateMutability": "nonpayable",
      "type": "function"
    },
    {
      "inputs": [
        {
          "internalType": "uint256",
          "name": "_vaultId",
          "type": "uint256"
        },
        {
          "internalType": "address[]",
          "name": "_recipients",
          "type": "address[]"
        },
        {
          "internalType": "uint256[]",
          "name": "_amounts",
          "type": "uint256[]"
        }
      ],
      "name": "distributePrizePool",
      "outputs": [],
      "stateMutability": "nonpayable",
      "type": "function"
    },
    {
      "inputs": [
        {
          "internalType": "address",
          "name": "",
          "type": "address"
        },
        {
          "internalType": "uint256",
          "name": "",
          "type": "uint256"
        }
      ],
      "name": "funderVaultIds",
      "outputs": [
        {
          "internalType": "uint256",
          "name": "",
          "type": "uint256"
        }
      ],
      "stateMutability": "view",
      "type": "function"
    },
    {
      "inputs": [
        {
          "internalType": "uint256",
          "name": "_vaultId",
          "type": "uint256"
        }
      ],
      "name": "getVaultDetails",
      "outputs": [
        {
          "components": [
            {
              "internalType": "address",
              "name": "funder",
              "type": "address"
            },
            {
              "internalType": "address",
              "name": "beneficiary",
              "type": "address"
            },
            {
              "internalType": "contract IERC20",
              "name": "token",
              "type": "address"
            },
            {
              "internalType": "enum VaultFactory.VaultType",
              "name": "vaultType",
              "type": "uint8"
            },
            {
              "internalType": "uint256",
              "name": "totalAmount",
              "type": "uint256"
            },
            {
              "internalType": "uint256",
              "name": "amountWithdrawn",
              "type": "uint256"
            },
            {
              "internalType": "string",
              "name": "termsCID",
              "type": "string"
            },
            {
              "internalType": "bool",
              "name": "finalized",
              "type": "bool"
            },
            {
              "internalType": "uint256",
              "name": "releaseTime",
              "type": "uint256"
            },
            {
              "internalType": "uint256[]",
              "name": "milestonePayouts",
              "type": "uint256[]"
            },
            {
              "internalType": "bool[]",
              "name": "milestonesPaid",
              "type": "bool[]"
            },
            {
              "internalType": "uint256",
              "name": "nextMilestoneToPay",
              "type": "uint256"
            }
          ],
          "internalType": "struct VaultFactory.Vault",
          "name": "",
          "type": "tuple"
        }
      ],
      "stateMutability": "view",
      "type": "function"
    },
    {
      "inputs": [
        {
          "internalType": "address",
          "name": "_beneficiary",
          "type": "address"
        }
      ],
      "name": "getVaultIdsAsBeneficiary",
      "outputs": [
        {
          "internalType": "uint256[]",
          "name": "",
          "type": "uint256[]"
        }
      ],
      "stateMutability": "view",
      "type": "function"
    },
    {
      "inputs": [
        {
          "internalType": "address",
          "name": "_funder",
          "type": "address"
        }
      ],
      "name": "getVaultIdsFundedByUser",
      "outputs": [
        {
          "internalType": "uint256[]",
          "name": "",
          "type": "uint256[]"
        }
      ],
      "stateMutability": "view",
      "type": "function"
    },
    {
      "inputs": [
        {
          "internalType": "uint256",
          "name": "_vaultId",
          "type": "uint256"
        }
      ],
      "name": "releaseNextMilestone",
      "outputs": [],
      "stateMutability": "nonpayable",
      "type": "function"
    },
    {
      "inputs": [
        {
          "internalType": "uint256",
          "name": "",
          "type": "uint256"
        }
      ],
      "name": "vaults",
      "outputs": [
        {
          "internalType": "address",
          "name": "funder",
          "type": "address"
        },
        {
          "internalType": "address",
          "name": "beneficiary",
          "type": "address"
        },
        {
          "internalType": "contract IERC20",
          "name": "token",
          "type": "address"
        },
        {
          "internalType": "enum VaultFactory.VaultType",
          "name": "vaultType",
          "type": "uint8"
        },
        {
          "internalType": "uint256",
          "name": "totalAmount",
          "type": "uint256"
        },
        {
          "internalType": "uint256",
          "name": "amountWithdrawn",
          "type": "uint256"
        },
        {
          "internalType": "string",
          "name": "termsCID",
          "type": "string"
        },
        {
          "internalType": "bool",
          "name": "finalized",
          "type": "bool"
        },
        {
          "internalType": "uint256",
          "name": "releaseTime",
          "type": "uint256"
        },
        {
          "internalType": "uint256",
          "name": "nextMilestoneToPay",
          "type": "uint256"
        }
      ],
      "stateMutability": "view",
      "type": "function"
    }
  ],
  "bytecode": "0x6080604052348015600f57600080fd5b5060016000819055506129a5806100276000396000f3fe608060405234801561001057600080fd5b506004361061009e5760003560e01c80638c64ea4a116100665780638c64ea4a14610143578063c0a9d8bd1461017c578063c0b579c0146101ac578063c8a107b2146101dc578063ce391f731461020c5761009e565b80633de01aeb146100a35780633deb506c146100bf578063638af63e146100db5780637937a5fc146100f757806381a1f9ce14610127575b600080fd5b6100bd60048036038101906100b89190611b7a565b61023c565b005b6100d960048036038101906100d49190611cae565b610561565b005b6100f560048036038101906100f09190611d43565b61095f565b005b610111600480360381019061010c9190611d70565b610d42565b60405161011e9190611dbf565b60405180910390f35b610141600480360381019061013c9190611dda565b610d73565b005b61015d60048036038101906101589190611d43565b611239565b6040516101739a99989796959493929190612011565b60405180910390f35b610196600480360381019061019191906120b4565b61139f565b6040516101a3919061219f565b60405180910390f35b6101c660048036038101906101c19190611d43565b611436565b6040516101d39190612477565b60405180910390f35b6101f660048036038101906101f191906120b4565b611798565b604051610203919061219f565b60405180910390f35b61022660048036038101906102219190611d70565b61182f565b6040516102339190611dbf565b60405180910390f35b60008403610276576040517f738606af00000000000000000000000000000000000000000000000000000000815260040160405180910390fd5b4283116102af576040517fb44ce7d300000000000000000000000000000000000000000000000000000000815260040160405180910390fd5b600060018054905090506000600180816001815401808255809150500390600052602060002090600b02019050338160000160006101000a81548173ffffffffffffffffffffffffffffffffffffffff021916908373ffffffffffffffffffffffffffffffffffffffff16021790555060008160010160006101000a81548173ffffffffffffffffffffffffffffffffffffffff021916908373ffffffffffffffffffffffffffffffffffffffff160217905550868160020160006101000a81548173ffffffffffffffffffffffffffffffffffffffff021916908373ffffffffffffffffffffffffffffffffffffffff16021790555085816003018190555060008160020160146101000a81548160ff021916908360018111156103d7576103d6611eef565b5b021790555084816007018190555083838260050191826103f89291906126d5565b508060020160009054906101000a900473ffffffffffffffffffffffffffffffffffffffff1673ffffffffffffffffffffffffffffffffffffffff166323b872dd3330896040518463ffffffff1660e01b815260040161045a939291906127a5565b6020604051808303816000875af1158015610479573d6000803e3d6000fd5b505050506040513d601f19601f8201168201806040525081019061049d9190612808565b50600260003373ffffffffffffffffffffffffffffffffffffffff1673ffffffffffffffffffffffffffffffffffffffff1681526020019081526020016000208290806001815401808255809150506001900390600052602060002001600090919091909150553373ffffffffffffffffffffffffffffffffffffffff16827f3df95abe764bcdce4aa078c8727a097336ee9632c1c1ee9f1923237d2d49e83e6000808a60405161055093929190612835565b60405180910390a350505050505050565b610569611860565b60018054905085106105a7576040517f19d2ee1300000000000000000000000000000000000000000000000000000000815260040160405180910390fd5b6000600186815481106105bd576105bc61286c565b5b90600052602060002090600b020190508060000160009054906101000a900473ffffffffffffffffffffffffffffffffffffffff1673ffffffffffffffffffffffffffffffffffffffff163373ffffffffffffffffffffffffffffffffffffffff1614610656576040517f8a206a3a00000000000000000000000000000000000000000000000000000000815260040160405180910390fd5b8060070154421015610694576040517fb44ce7d300000000000000000000000000000000000000000000000000000000815260040160405180910390fd5b8060060160009054906101000a900460ff16156106dd576040517f5df822fb00000000000000000000000000000000000000000000000000000000815260040160405180910390fd5b82829050858590501461071c576040517fa121188700000000000000000000000000000000000000000000000000000000815260040160405180910390fd5b600080600090505b84849050811015610763578484828181106107425761074161286c565b5b905060200201358261075491906128ca565b91508080600101915050610724565b50816003015481146107a1576040517ff7e6651300000000000000000000000000000000000000000000000000000000815260040160405180910390fd5b60018260060160006101000a81548160ff02191690831515021790555080826004018190555060005b868690508110156108e85760008585838181106107ea576107e961286c565b5b9050602002013511156108db578260020160009054906101000a900473ffffffffffffffffffffffffffffffffffffffff1673ffffffffffffffffffffffffffffffffffffffff1663a9059cbb88888481811061084a5761084961286c565b5b905060200201602081019061085f91906120b4565b8787858181106108725761087161286c565b5b905060200201356040518363ffffffff1660e01b81526004016108969291906128fe565b6020604051808303816000875af11580156108b5573d6000803e3d6000fd5b505050506040513d601f19601f820116820180604052508101906108d99190612808565b505b80806001019150506107ca565b50867f40d8c854b6d5329fd5fccae04f5a931d7529963fbab81aced7337394e737cb4d826040516109199190611dbf565b60405180910390a2867f2fa311dce014989819445737ed8326c4710fac502c76951646f4df9f223faa8460405160405180910390a250506109586118a6565b5050505050565b610967611860565b60018054905081106109a5576040517f19d2ee1300000000000000000000000000000000000000000000000000000000815260040160405180910390fd5b6000600182815481106109bb576109ba61286c565b5b90600052602060002090600b020190508060000160009054906101000a900473ffffffffffffffffffffffffffffffffffffffff1673ffffffffffffffffffffffffffffffffffffffff163373ffffffffffffffffffffffffffffffffffffffff1614610a54576040517f8a206a3a00000000000000000000000000000000000000000000000000000000815260040160405180910390fd5b8060060160009054906101000a900460ff1615610a9d576040517f5df822fb00000000000000000000000000000000000000000000000000000000815260040160405180910390fd5b806008018054905081600a015410610ae1576040517fa003175200000000000000000000000000000000000000000000000000000000815260040160405180910390fd5b600081600a015490506000826008018281548110610b0257610b0161286c565b5b906000526020600020015490506001836009018381548110610b2757610b2661286c565b5b90600052602060002090602091828204019190066101000a81548160ff02191690831515021790555082600a016000815480929190610b6590612927565b919050555080836004016000828254610b7e91906128ca565b92505081905550826008018054905083600a015403610bb55760018360060160006101000a81548160ff0219169083151502179055505b8260020160009054906101000a900473ffffffffffffffffffffffffffffffffffffffff1673ffffffffffffffffffffffffffffffffffffffff1663a9059cbb8460010160009054906101000a900473ffffffffffffffffffffffffffffffffffffffff16836040518363ffffffff1660e01b8152600401610c389291906128fe565b6020604051808303816000875af1158015610c57573d6000803e3d6000fd5b505050506040513d601f19601f82011682018060405250810190610c7b9190612808565b508260010160009054906101000a900473ffffffffffffffffffffffffffffffffffffffff1673ffffffffffffffffffffffffffffffffffffffff16847fc566b56f9fa851c8c74d53c6fae23cd074cf2e73d4ce69107c722ef3c408408d83604051610ce79190611dbf565b60405180910390a38260060160009054906101000a900460ff1615610d3457837f2fa311dce014989819445737ed8326c4710fac502c76951646f4df9f223faa8460405160405180910390a25b505050610d3f6118a6565b50565b60026020528160005260406000208181548110610d5e57600080fd5b90600052602060002001600091509150505481565b600073ffffffffffffffffffffffffffffffffffffffff168673ffffffffffffffffffffffffffffffffffffffff1603610dd9576040517fd92e233d00000000000000000000000000000000000000000000000000000000815260040160405180910390fd5b60008484905003610e16576040517fa003175200000000000000000000000000000000000000000000000000000000815260040160405180910390fd5b600080600090505b85859050811015610eb0576000868683818110610e3e57610e3d61286c565b5b9050602002013503610e7c576040517f738606af00000000000000000000000000000000000000000000000000000000815260040160405180910390fd5b858582818110610e8f57610e8e61286c565b5b9050602002013582610ea191906128ca565b91508080600101915050610e1e565b50600060018054905090506000600180816001815401808255809150500390600052602060002090600b02019050338160000160006101000a81548173ffffffffffffffffffffffffffffffffffffffff021916908373ffffffffffffffffffffffffffffffffffffffff160217905550888160010160006101000a81548173ffffffffffffffffffffffffffffffffffffffff021916908373ffffffffffffffffffffffffffffffffffffffff160217905550878160020160006101000a81548173ffffffffffffffffffffffffffffffffffffffff021916908373ffffffffffffffffffffffffffffffffffffffff16021790555082816003018190555060018160020160146101000a81548160ff02191690836001811115610fd857610fd7611eef565b5b02179055508484826005019182610ff09291906126d5565b5086868260080191906110049291906118b0565b508686905067ffffffffffffffff811115611022576110216124a4565b5b6040519080825280602002602001820160405280156110505781602001602082028036833780820191505090505b508160090190805190602001906110689291906118fd565b508060020160009054906101000a900473ffffffffffffffffffffffffffffffffffffffff1673ffffffffffffffffffffffffffffffffffffffff166323b872dd3330866040518463ffffffff1660e01b81526004016110ca939291906127a5565b6020604051808303816000875af11580156110e9573d6000803e3d6000fd5b505050506040513d601f19601f8201168201806040525081019061110d9190612808565b50600260003373ffffffffffffffffffffffffffffffffffffffff1673ffffffffffffffffffffffffffffffffffffffff168152602001908152602001600020829080600181540180825580915050600190039060005260206000200160009091909190915055600360008a73ffffffffffffffffffffffffffffffffffffffff1673ffffffffffffffffffffffffffffffffffffffff1681526020019081526020016000208290806001815401808255809150506001900390600052602060002001600090919091909150553373ffffffffffffffffffffffffffffffffffffffff16827f3df95abe764bcdce4aa078c8727a097336ee9632c1c1ee9f1923237d2d49e83e8b60018760405161122693929190612835565b60405180910390a3505050505050505050565b6001818154811061124957600080fd5b90600052602060002090600b02016000915090508060000160009054906101000a900473ffffffffffffffffffffffffffffffffffffffff16908060010160009054906101000a900473ffffffffffffffffffffffffffffffffffffffff16908060020160009054906101000a900473ffffffffffffffffffffffffffffffffffffffff16908060020160149054906101000a900460ff16908060030154908060040154908060050180546112fd90612502565b80601f016020809104026020016040519081016040528092919081815260200182805461132990612502565b80156113765780601f1061134b57610100808354040283529160200191611376565b820191906000526020600020905b81548152906001019060200180831161135957829003601f168201915b5050505050908060060160009054906101000a900460ff169080600701549080600a015490508a565b6060600360008373ffffffffffffffffffffffffffffffffffffffff1673ffffffffffffffffffffffffffffffffffffffff16815260200190815260200160002080548060200260200160405190810160405280929190818152602001828054801561142a57602002820191906000526020600020905b815481526020019060010190808311611416575b50505050509050919050565b61143e6119a3565b600180549050821061147c576040517f19d2ee1300000000000000000000000000000000000000000000000000000000815260040160405180910390fd5b600182815481106114905761148f61286c565b5b90600052602060002090600b0201604051806101800160405290816000820160009054906101000a900473ffffffffffffffffffffffffffffffffffffffff1673ffffffffffffffffffffffffffffffffffffffff1673ffffffffffffffffffffffffffffffffffffffff1681526020016001820160009054906101000a900473ffffffffffffffffffffffffffffffffffffffff1673ffffffffffffffffffffffffffffffffffffffff1673ffffffffffffffffffffffffffffffffffffffff1681526020016002820160009054906101000a900473ffffffffffffffffffffffffffffffffffffffff1673ffffffffffffffffffffffffffffffffffffffff1673ffffffffffffffffffffffffffffffffffffffff1681526020016002820160149054906101000a900460ff1660018111156115d1576115d0611eef565b5b60018111156115e3576115e2611eef565b5b8152602001600382015481526020016004820154815260200160058201805461160b90612502565b80601f016020809104026020016040519081016040528092919081815260200182805461163790612502565b80156116845780601f1061165957610100808354040283529160200191611684565b820191906000526020600020905b81548152906001019060200180831161166757829003601f168201915b505050505081526020016006820160009054906101000a900460ff16151515158152602001600782015481526020016008820180548060200260200160405190810160405280929190818152602001828054801561170157602002820191906000526020600020905b8154815260200190600101908083116116ed575b505050505081526020016009820180548060200260200160405190810160405280929190818152602001828054801561177e57602002820191906000526020600020906000905b82829054906101000a900460ff161515815260200190600101906020826000010492830192600103820291508084116117485790505b50505050508152602001600a820154815250509050919050565b6060600260008373ffffffffffffffffffffffffffffffffffffffff1673ffffffffffffffffffffffffffffffffffffffff16815260200190815260200160002080548060200260200160405190810160405280929190818152602001828054801561182357602002820191906000526020600020905b81548152602001906001019080831161180f575b50505050509050919050565b6003602052816000526040600020818154811061184b57600080fd5b90600052602060002001600091509150505481565b60026000540361189c576040517f3ee5aeb500000000000000000000000000000000000000000000000000000000815260040160405180910390fd5b6002600081905550565b6001600081905550565b8280548282559060005260206000209081019282156118ec579160200282015b828111156118eb5782358255916020019190600101906118d0565b5b5090506118f99190611a5a565b5090565b82805482825590600052602060002090601f016020900481019282156119925791602002820160005b8382111561196357835183826101000a81548160ff0219169083151502179055509260200192600101602081600001049283019260010302611926565b80156119905782816101000a81549060ff0219169055600101602081600001049283019260010302611963565b505b50905061199f9190611a5a565b5090565b604051806101800160405280600073ffffffffffffffffffffffffffffffffffffffff168152602001600073ffffffffffffffffffffffffffffffffffffffff168152602001600073ffffffffffffffffffffffffffffffffffffffff16815260200160006001811115611a1a57611a19611eef565b5b8152602001600081526020016000815260200160608152602001600015158152602001600081526020016060815260200160608152602001600081525090565b5b80821115611a73576000816000905550600101611a5b565b5090565b600080fd5b600080fd5b600073ffffffffffffffffffffffffffffffffffffffff82169050919050565b6000611aac82611a81565b9050919050565b611abc81611aa1565b8114611ac757600080fd5b50565b600081359050611ad981611ab3565b92915050565b6000819050919050565b611af281611adf565b8114611afd57600080fd5b50565b600081359050611b0f81611ae9565b92915050565b600080fd5b600080fd5b600080fd5b60008083601f840112611b3a57611b39611b15565b5b8235905067ffffffffffffffff811115611b5757611b56611b1a565b5b602083019150836001820283011115611b7357611b72611b1f565b5b9250929050565b600080600080600060808688031215611b9657611b95611a77565b5b6000611ba488828901611aca565b9550506020611bb588828901611b00565b9450506040611bc688828901611b00565b935050606086013567ffffffffffffffff811115611be757611be6611a7c565b5b611bf388828901611b24565b92509250509295509295909350565b60008083601f840112611c1857611c17611b15565b5b8235905067ffffffffffffffff811115611c3557611c34611b1a565b5b602083019150836020820283011115611c5157611c50611b1f565b5b9250929050565b60008083601f840112611c6e57611c6d611b15565b5b8235905067ffffffffffffffff811115611c8b57611c8a611b1a565b5b602083019150836020820283011115611ca757611ca6611b1f565b5b9250929050565b600080600080600060608688031215611cca57611cc9611a77565b5b6000611cd888828901611b00565b955050602086013567ffffffffffffffff811115611cf957611cf8611a7c565b5b611d0588828901611c02565b9450945050604086013567ffffffffffffffff811115611d2857611d27611a7c565b5b611d3488828901611c58565b92509250509295509295909350565b600060208284031215611d5957611d58611a77565b5b6000611d6784828501611b00565b91505092915050565b60008060408385031215611d8757611d86611a77565b5b6000611d9585828601611aca565b9250506020611da685828601611b00565b9150509250929050565b611db981611adf565b82525050565b6000602082019050611dd46000830184611db0565b92915050565b60008060008060008060808789031215611df757611df6611a77565b5b6000611e0589828a01611aca565b9650506020611e1689828a01611aca565b955050604087013567ffffffffffffffff811115611e3757611e36611a7c565b5b611e4389828a01611c58565b9450945050606087013567ffffffffffffffff811115611e6657611e65611a7c565b5b611e7289828a01611b24565b92509250509295509295509295565b611e8a81611aa1565b82525050565b6000819050919050565b6000611eb5611eb0611eab84611a81565b611e90565b611a81565b9050919050565b6000611ec782611e9a565b9050919050565b6000611ed982611ebc565b9050919050565b611ee981611ece565b82525050565b7f4e487b7100000000000000000000000000000000000000000000000000000000600052602160045260246000fd5b60028110611f2f57611f2e611eef565b5b50565b6000819050611f4082611f1e565b919050565b6000611f5082611f32565b9050919050565b611f6081611f45565b82525050565b600081519050919050565b600082825260208201905092915050565b60005b83811015611fa0578082015181840152602081019050611f85565b60008484015250505050565b6000601f19601f8301169050919050565b6000611fc882611f66565b611fd28185611f71565b9350611fe2818560208601611f82565b611feb81611fac565b840191505092915050565b60008115159050919050565b61200b81611ff6565b82525050565b600061014082019050612027600083018d611e81565b612034602083018c611e81565b612041604083018b611ee0565b61204e606083018a611f57565b61205b6080830189611db0565b61206860a0830188611db0565b81810360c083015261207a8187611fbd565b905061208960e0830186612002565b612097610100830185611db0565b6120a5610120830184611db0565b9b9a5050505050505050505050565b6000602082840312156120ca576120c9611a77565b5b60006120d884828501611aca565b91505092915050565b600081519050919050565b600082825260208201905092915050565b6000819050602082019050919050565b61211681611adf565b82525050565b6000612128838361210d565b60208301905092915050565b6000602082019050919050565b600061214c826120e1565b61215681856120ec565b9350612161836120fd565b8060005b83811015612192578151612179888261211c565b975061218483612134565b925050600181019050612165565b5085935050505092915050565b600060208201905081810360008301526121b98184612141565b905092915050565b6121ca81611aa1565b82525050565b6121d981611ece565b82525050565b6121e881611f45565b82525050565b600082825260208201905092915050565b600061220a82611f66565b61221481856121ee565b9350612224818560208601611f82565b61222d81611fac565b840191505092915050565b61224181611ff6565b82525050565b600082825260208201905092915050565b6000612263826120e1565b61226d8185612247565b9350612278836120fd565b8060005b838110156122a9578151612290888261211c565b975061229b83612134565b92505060018101905061227c565b5085935050505092915050565b600081519050919050565b600082825260208201905092915050565b6000819050602082019050919050565b60006122ee8383612238565b60208301905092915050565b6000602082019050919050565b6000612312826122b6565b61231c81856122c1565b9350612327836122d2565b8060005b8381101561235857815161233f88826122e2565b975061234a836122fa565b92505060018101905061232b565b5085935050505092915050565b60006101808301600083015161237e60008601826121c1565b50602083015161239160208601826121c1565b5060408301516123a460408601826121d0565b5060608301516123b760608601826121df565b5060808301516123ca608086018261210d565b5060a08301516123dd60a086018261210d565b5060c083015184820360c08601526123f582826121ff565b91505060e083015161240a60e0860182612238565b5061010083015161241f61010086018261210d565b506101208301518482036101208601526124398282612258565b9150506101408301518482036101408601526124558282612307565b91505061016083015161246c61016086018261210d565b508091505092915050565b600060208201905081810360008301526124918184612365565b905092915050565b600082905092915050565b7f4e487b7100000000000000000000000000000000000000000000000000000000600052604160045260246000fd5b7f4e487b7100000000000000000000000000000000000000000000000000000000600052602260045260246000fd5b6000600282049050600182168061251a57607f821691505b60208210810361252d5761252c6124d3565b5b50919050565b60008190508160005260206000209050919050565b60006020601f8301049050919050565b600082821b905092915050565b6000600883026125957fffffffffffffffffffffffffffffffffffffffffffffffffffffffffffffffff82612558565b61259f8683612558565b95508019841693508086168417925050509392505050565b60006125d26125cd6125c884611adf565b611e90565b611adf565b9050919050565b6000819050919050565b6125ec836125b7565b6126006125f8826125d9565b848454612565565b825550505050565b600090565b612615612608565b6126208184846125e3565b505050565b5b818110156126445761263960008261260d565b600181019050612626565b5050565b601f8211156126895761265a81612533565b61266384612548565b81016020851015612672578190505b61268661267e85612548565b830182612625565b50505b505050565b600082821c905092915050565b60006126ac6000198460080261268e565b1980831691505092915050565b60006126c5838361269b565b9150826002028217905092915050565b6126df8383612499565b67ffffffffffffffff8111156126f8576126f76124a4565b5b6127028254612502565b61270d828285612648565b6000601f83116001811461273c576000841561272a578287013590505b61273485826126b9565b86555061279c565b601f19841661274a86612533565b60005b828110156127725784890135825560018201915060208501945060208101905061274d565b8683101561278f578489013561278b601f89168261269b565b8355505b6001600288020188555050505b50505050505050565b60006060820190506127ba6000830186611e81565b6127c76020830185611e81565b6127d46040830184611db0565b949350505050565b6127e581611ff6565b81146127f057600080fd5b50565b600081519050612802816127dc565b92915050565b60006020828403121561281e5761281d611a77565b5b600061282c848285016127f3565b91505092915050565b600060608201905061284a6000830186611e81565b6128576020830185611f57565b6128646040830184611db0565b949350505050565b7f4e487b7100000000000000000000000000000000000000000000000000000000600052603260045260246000fd5b7f4e487b7100000000000000000000000000000000000000000000000000000000600052601160045260246000fd5b60006128d582611adf565b91506128e083611adf565b92508282019050808211156128f8576128f761289b565b5b92915050565b60006040820190506129136000830185611e81565b6129206020830184611db0565b9392505050565b600061293282611adf565b91507fffffffffffffffffffffffffffffffffffffffffffffffffffffffffffffffff82036129645761296361289b565b5b60018201905091905056fea26469706673582212204539b3e39570117626e3a19c3cc7b73879c25cb93e12436fadf353cca43858df64736f6c634300081c0033",
  "linkReferences": {},
  "deployedLinkReferences": {}
}