{
  "_format": "hh-sol-artifact-1",
  "contractName": "VaultFactoryVerifiable",
  "sourceName": "contracts/VaultFactoryVerifiable.sol",
  "abi": [
    {
      "inputs": [],
      "stateMutability": "nonpayable",
      "type": "constructor"
    },
    {
      "inputs": [],
      "name": "FunderOverrideOnlyForVerifiableVaults",
      "type": "error"
    },
    {
      "inputs": [],
      "name": "IncorrectTotalPayout",
      "type": "error"
    },
    {
      "inputs": [],
      "name": "InvalidVaultId",
      "type": "error"
    },
    {
      "inputs": [],
      "name": "MilestoneAmountsCannotBeZero",
      "type": "error"
    },
    {
      "inputs": [],
      "name": "MismatchedArrays",
      "type": "error"
    },
    {
      "inputs": [],
      "name": "NoMilestonesToPay",
      "type": "error"
    },
    {
      "inputs": [],
      "name": "NotTheFunder",
      "type": "error"
    },
    {
      "inputs": [],
      "name": "ProofSetIdCannotBeZeroForVerifiableVault",
      "type": "error"
    },
    {
      "inputs": [],
      "name": "ProofSetIdMustBeZeroForNonVerifiableVault",
      "type": "error"
    },
    {
      "inputs": [],
      "name": "ProofSetNotLive",
      "type": "error"
    },
    {
      "inputs": [],
      "name": "ReentrancyGuardReentrantCall",
      "type": "error"
    },
    {
      "inputs": [],
      "name": "ReleaseTimeNotMet",
      "type": "error"
    },
    {
      "inputs": [],
      "name": "VaultIsFinalized",
      "type": "error"
    },
    {
      "inputs": [],
      "name": "VerifiableStorageNotSupportedOnChain",
      "type": "error"
    },
    {
      "inputs": [],
      "name": "ZeroAddress",
      "type": "error"
    },
    {
      "anonymous": false,
      "inputs": [
        {
          "indexed": true,
          "internalType": "uint256",
          "name": "vaultId",
          "type": "uint256"
        }
      ],
      "name": "FunderVerificationOverridden",
      "type": "event"
    },
    {
      "anonymous": false,
      "inputs": [
        {
          "indexed": true,
          "internalType": "uint256",
          "name": "vaultId",
          "type": "uint256"
        },
        {
          "indexed": false,
          "internalType": "uint256",
          "name": "totalAmount",
          "type": "uint256"
        }
      ],
      "name": "FundsDistributed",
      "type": "event"
    },
    {
      "anonymous": false,
      "inputs": [
        {
          "indexed": true,
          "internalType": "uint256",
          "name": "vaultId",
          "type": "uint256"
        },
        {
          "indexed": true,
          "internalType": "address",
          "name": "beneficiary",
          "type": "address"
        },
        {
          "indexed": false,
          "internalType": "uint256",
          "name": "amount",
          "type": "uint256"
        }
      ],
      "name": "MilestoneReleased",
      "type": "event"
    },
    {
      "anonymous": false,
      "inputs": [
        {
          "indexed": true,
          "internalType": "uint256",
          "name": "vaultId",
          "type": "uint256"
        }
      ],
      "name": "VaultCompleted",
      "type": "event"
    },
    {
      "anonymous": false,
      "inputs": [
        {
          "indexed": true,
          "internalType": "uint256",
          "name": "vaultId",
          "type": "uint256"
        },
        {
          "indexed": true,
          "internalType": "address",
          "name": "funder",
          "type": "address"
        },
        {
          "indexed": false,
          "internalType": "address",
          "name": "beneficiary",
          "type": "address"
        },
        {
          "indexed": false,
          "internalType": "enum VaultFactoryVerifiable.VaultType",
          "name": "vaultType",
          "type": "uint8"
        },
        {
          "indexed": false,
          "internalType": "uint256",
          "name": "totalAmount",
          "type": "uint256"
        },
        {
          "indexed": false,
          "internalType": "bool",
          "name": "isVerifiable",
          "type": "bool"
        }
      ],
      "name": "VaultCreated",
      "type": "event"
    },
    {
      "inputs": [
        {
          "internalType": "address",
          "name": "",
          "type": "address"
        },
        {
          "internalType": "uint256",
          "name": "",
          "type": "uint256"
        }
      ],
      "name": "beneficiaryVaultIds",
      "outputs": [
        {
          "internalType": "uint224",
          "name": "",
          "type": "uint224"
        }
      ],
      "stateMutability": "view",
      "type": "function"
    },
    {
      "inputs": [
        {
          "internalType": "uint256",
          "name": "",
          "type": "uint256"
        }
      ],
      "name": "chainIdToPdpVerifier",
      "outputs": [
        {
          "internalType": "address",
          "name": "",
          "type": "address"
        }
      ],
      "stateMutability": "view",
      "type": "function"
    },
    {
      "inputs": [
        {
          "internalType": "address",
          "name": "_beneficiary",
          "type": "address"
        },
        {
          "internalType": "address",
          "name": "_token",
          "type": "address"
        },
        {
          "internalType": "uint256[]",
          "name": "_milestonePayouts",
          "type": "uint256[]"
        },
        {
          "internalType": "string",
          "name": "_termsCID",
          "type": "string"
        },
        {
          "internalType": "bool",
          "name": "_isVerifiable",
          "type": "bool"
        },
        {
          "internalType": "uint256",
          "name": "_synapseProofSetId",
          "type": "uint256"
        },
        {
          "internalType": "bool",
          "name": "_funderCanOverrideVerification",
          "type": "bool"
        }
      ],
      "name": "createMilestoneVault",
      "outputs": [],
      "stateMutability": "nonpayable",
      "type": "function"
    },
    {
      "inputs": [
        {
          "internalType": "address",
          "name": "_token",
          "type": "address"
        },
        {
          "internalType": "uint256",
          "name": "_amount",
          "type": "uint256"
        },
        {
          "internalType": "uint256",
          "name": "_releaseTime",
          "type": "uint256"
        },
        {
          "internalType": "string",
          "name": "_termsCID",
          "type": "string"
        },
        {
          "internalType": "bool",
          "name": "_isVerifiable",
          "type": "bool"
        },
        {
          "internalType": "uint256",
          "name": "_synapseProofSetId",
          "type": "uint256"
        },
        {
          "internalType": "bool",
          "name": "_funderCanOverrideVerification",
          "type": "bool"
        }
      ],
      "name": "createPrizePoolVault",
      "outputs": [],
      "stateMutability": "nonpayable",
      "type": "function"
    },
    {
      "inputs": [
        {
          "internalType": "uint256",
          "name": "_vaultId",
          "type": "uint256"
        },
        {
          "internalType": "address[]",
          "name": "_recipients",
          "type": "address[]"
        },
        {
          "internalType": "uint256[]",
          "name": "_amounts",
          "type": "uint256[]"
        },
        {
          "internalType": "bool",
          "name": "_funderBypassVerification",
          "type": "bool"
        }
      ],
      "name": "distributePrizePool",
      "outputs": [],
      "stateMutability": "nonpayable",
      "type": "function"
    },
    {
      "inputs": [
        {
          "internalType": "address",
          "name": "",
          "type": "address"
        },
        {
          "internalType": "uint256",
          "name": "",
          "type": "uint256"
        }
      ],
      "name": "funderVaultIds",
      "outputs": [
        {
          "internalType": "uint224",
          "name": "",
          "type": "uint224"
        }
      ],
      "stateMutability": "view",
      "type": "function"
    },
    {
      "inputs": [
        {
          "internalType": "uint256",
          "name": "_vaultId",
          "type": "uint256"
        }
      ],
      "name": "getVaultDetails",
      "outputs": [
        {
          "components": [
            {
              "internalType": "address",
              "name": "funder",
              "type": "address"
            },
            {
              "internalType": "address",
              "name": "beneficiary",
              "type": "address"
            },
            {
              "internalType": "contract IERC20",
              "name": "token",
              "type": "address"
            },
            {
              "internalType": "enum VaultFactoryVerifiable.VaultType",
              "name": "vaultType",
              "type": "uint8"
            },
            {
              "internalType": "uint256",
              "name": "totalAmount",
              "type": "uint256"
            },
            {
              "internalType": "uint256",
              "name": "amountWithdrawn",
              "type": "uint256"
            },
            {
              "internalType": "string",
              "name": "termsCID",
              "type": "string"
            },
            {
              "internalType": "bool",
              "name": "finalized",
              "type": "bool"
            },
            {
              "internalType": "uint256",
              "name": "releaseTime",
              "type": "uint256"
            },
            {
              "internalType": "uint256[]",
              "name": "milestonePayouts",
              "type": "uint256[]"
            },
            {
              "internalType": "bool[]",
              "name": "milestonesPaid",
              "type": "bool[]"
            },
            {
              "internalType": "uint256",
              "name": "nextMilestoneToPay",
              "type": "uint256"
            },
            {
              "internalType": "bool",
              "name": "isVerifiable",
              "type": "bool"
            },
            {
              "internalType": "uint256",
              "name": "synapseProofSetId",
              "type": "uint256"
            },
            {
              "internalType": "bool",
              "name": "funderCanOverrideVerification",
              "type": "bool"
            }
          ],
          "internalType": "struct VaultFactoryVerifiable.Vault",
          "name": "",
          "type": "tuple"
        }
      ],
      "stateMutability": "view",
      "type": "function"
    },
    {
      "inputs": [
        {
          "internalType": "address",
          "name": "_beneficiary",
          "type": "address"
        }
      ],
      "name": "getVaultIdsAsBeneficiary",
      "outputs": [
        {
          "internalType": "uint224[]",
          "name": "",
          "type": "uint224[]"
        }
      ],
      "stateMutability": "view",
      "type": "function"
    },
    {
      "inputs": [
        {
          "internalType": "address",
          "name": "_funder",
          "type": "address"
        }
      ],
      "name": "getVaultIdsFundedByUser",
      "outputs": [
        {
          "internalType": "uint224[]",
          "name": "",
          "type": "uint224[]"
        }
      ],
      "stateMutability": "view",
      "type": "function"
    },
    {
      "inputs": [],
      "name": "owner",
      "outputs": [
        {
          "internalType": "address",
          "name": "",
          "type": "address"
        }
      ],
      "stateMutability": "view",
      "type": "function"
    },
    {
      "inputs": [
        {
          "internalType": "uint256",
          "name": "_vaultId",
          "type": "uint256"
        },
        {
          "internalType": "bool",
          "name": "_funderBypassVerification",
          "type": "bool"
        }
      ],
      "name": "releaseNextMilestone",
      "outputs": [],
      "stateMutability": "nonpayable",
      "type": "function"
    },
    {
      "inputs": [
        {
          "internalType": "uint256",
          "name": "_chainId",
          "type": "uint256"
        },
        {
          "internalType": "address",
          "name": "_pdpVerifierAddress",
          "type": "address"
        }
      ],
      "name": "setPdpVerifierContractForChain",
      "outputs": [],
      "stateMutability": "nonpayable",
      "type": "function"
    },
    {
      "inputs": [
        {
          "internalType": "uint256",
          "name": "",
          "type": "uint256"
        }
      ],
      "name": "vaults",
      "outputs": [
        {
          "internalType": "address",
          "name": "funder",
          "type": "address"
        },
        {
          "internalType": "address",
          "name": "beneficiary",
          "type": "address"
        },
        {
          "internalType": "contract IERC20",
          "name": "token",
          "type": "address"
        },
        {
          "internalType": "enum VaultFactoryVerifiable.VaultType",
          "name": "vaultType",
          "type": "uint8"
        },
        {
          "internalType": "uint256",
          "name": "totalAmount",
          "type": "uint256"
        },
        {
          "internalType": "uint256",
          "name": "amountWithdrawn",
          "type": "uint256"
        },
        {
          "internalType": "string",
          "name": "termsCID",
          "type": "string"
        },
        {
          "internalType": "bool",
          "name": "finalized",
          "type": "bool"
        },
        {
          "internalType": "uint256",
          "name": "releaseTime",
          "type": "uint256"
        },
        {
          "internalType": "uint256",
          "name": "nextMilestoneToPay",
          "type": "uint256"
        },
        {
          "internalType": "bool",
          "name": "isVerifiable",
          "type": "bool"
        },
        {
          "internalType": "uint256",
          "name": "synapseProofSetId",
          "type": "uint256"
        },
        {
          "internalType": "bool",
          "name": "funderCanOverrideVerification",
          "type": "bool"
        }
      ],
      "stateMutability": "view",
      "type": "function"
    }
  ],
  "bytecode": "0x60808060405234602c576001600055600580546001600160a01b0319163317905561210690816100328239f35b600080fdfe6080604052600436101561001257600080fd5b60003560e01c8063100b987514611a3c57806370cf9092146116d85780637936c380146111715780637937a5fc146111275780638c64ea4a1461101d5780638da5cb5b14610ff457806398f064bc14610c5a578063b7680f1614610c26578063c0a9d8bd14610ba6578063c0b579c014610251578063c8a107b2146101c1578063c92966a5146101135763ce391f73146100ab57600080fd5b3461010e57604036600319011261010e576100c4611d69565b6001600160a01b031660009081526003602052604090208054602435919082101561010e576020916100f591611dc2565b905460405160039290921b1c6001600160e01b03168152f35b600080fd5b3461010e57604036600319011261010e5761012c611d7f565b6005546001600160a01b0316330361017257600435600052600460205260406000209060018060a01b03166bffffffffffffffffffffffff60a01b825416179055600080f35b60405162461bcd60e51b815260206004820152602160248201527f4f6e6c79206f776e65722063616e2063616c6c20746869732066756e6374696f6044820152603760f91b6064820152608490fd5b3461010e57602036600319011261010e576001600160a01b036101e2611d69565b166000526002602052604060002060405190816020825491828152019160005260206000209060005b8181106102325761022e8561022281870382611e4f565b60405191829182611f62565b0390f35b82546001600160e01b031684526020909301926001928301920161020b565b3461010e57602036600319011261010e5760043560006101c060405161027681611e33565b8281528260208201528260408201528260608201528260808201528260a0820152606060c08201528260e082015282610100820152606061012082015260606101408201528261016082015282610180820152826101a08201520152600154811015610b95576102e590611dda565b50604051906102f382611e33565b80546001600160a01b0390811683526001820154811660208401908152600280840154928316604086019081529491936060830193909160a09190911c60ff1690811015610b7f5783526003810154946080830195865260048201549560a0840196875261036360058401611e70565b9660c0850197885260ff6006850154169760e086019815158952600785015490610100870191825260088601926040518085602082975493848152019060005260206000209260005b818110610b665750506103c192500385611e4f565b6101208801938452600987019460405180968791602082549182815201916000526020600020906000915b81601f84011061097e575491818110610968575b81811061094f575b818110610936575b81811061091d575b818110610905575b8181106108ec575b8181106108d3575b8181106108ba575b8181106108a1575b818110610888575b81811061086f575b818110610856575b81811061083d575b818110610824575b81811061080b575b8181106107f2575b8181106107d9575b8181106107c0575b8181106107a7575b81811061078e575b818110610775575b81811061075c575b818110610743575b81811061072a575b818110610711575b8181106106f8575b8181106106df575b8181106106c6575b8181106106ad575b818110610694575b81811061067b575b1061066b575b50036105029087611e4f565b6101408901958652600a8801546101608a01908152600b89015460ff90811615156101808c01908152600c8b01546101a08d01908152600d909b015490911615156101c08c019081526040805160208082529d516001600160a01b039081169e82019e909e529e518d16908f01529851909a1660608d0152995196989661058d9060808d0190611f14565b5160a08b01525160c08a01525160e089016101e0905261020089016105b191611f21565b98511515610100890152516101208801525196601f1987820301610140880152875190818152602001976020019060005b818110610655575050505193601f19868803016101608701526020808651988981520195016000975b80891061063b575050859650516101808601525115156101a0850152516101c08401525115156101e08301520390f35b90956020806001928951151581520197019801979061060b565b82518a526020998a0199909201916001016105e2565b60f81c151581526020018e6104f6565b92602060019160ff8560f01c16151581520193016104f0565b92602060019160ff8560e81c16151581520193016104e8565b92602060019160ff8560e01c16151581520193016104e0565b92602060019160ff8560d81c16151581520193016104d8565b92602060019160ff8560d01c16151581520193016104d0565b92602060019160ff8560c81c16151581520193016104c8565b92602060019160ff8560c01c16151581520193016104c0565b92602060019160ff8560b81c16151581520193016104b8565b92602060019160ff8560b01c16151581520193016104b0565b92602060019160ff8560a81c16151581520193016104a8565b92602060019160ff8560a01c16151581520193016104a0565b92602060019160ff8560981c1615158152019301610498565b92602060019160ff8560901c1615158152019301610490565b92602060019160ff8560881c1615158152019301610488565b92602060019160ff8560801c1615158152019301610480565b92602060019160ff8560781c1615158152019301610478565b92602060019160ff8560701c1615158152019301610470565b92602060019160ff8560681c1615158152019301610468565b92602060019160ff8560601c1615158152019301610460565b92602060019160ff8560581c1615158152019301610458565b92602060019160ff8560501c1615158152019301610450565b92602060019160ff8560481c1615158152019301610448565b92602060019160ff8560401c1615158152019301610440565b92602060019160ff8560381c1615158152019301610438565b92602060019160ff8560301c1615158152019301610430565b92602060019160ff8560281c1615158152019301610428565b92602060019160ff85831c1615158152019301610420565b92602060019160ff8560181c1615158152019301610418565b92602060019160ff8560101c1615158152019301610410565b92602060019160ff8560081c1615158152019301610408565b92602060019160ff851615158152019301610400565b935090916001610400602092865460ff81161515825260ff8160081c1615158583015260ff8160101c161515604083015260ff8160181c161515606083015260ff81861c161515608083015260ff8160281c16151560a083015260ff8160301c16151560c083015260ff8160381c16151560e083015260ff8160401c16151561010083015260ff8160481c16151561012083015260ff8160501c16151561014083015260ff8160581c16151561016083015260ff8160601c16151561018083015260ff8160681c1615156101a083015260ff8160701c1615156101c083015260ff8160781c1615156101e083015260ff8160801c16151561020083015260ff8160881c16151561022083015260ff8160901c16151561024083015260ff8160981c16151561026083015260ff8160a01c16151561028083015260ff8160a81c1615156102a083015260ff8160b01c1615156102c083015260ff8160b81c1615156102e083015260ff8160c01c16151561030083015260ff8160c81c16151561032083015260ff8160d01c16151561034083015260ff8160d81c16151561036083015260ff8160e01c16151561038083015260ff8160e81c1615156103a083015260ff8160f01c1615156103c083015260f81c15156103e08201520194019201908993926103ec565b84548352600194850194899450602090930192016103ac565b634e487b7160e01b600052602160045260246000fd5b6319d2ee1360e01b60005260046000fd5b3461010e57602036600319011261010e576001600160a01b03610bc7611d69565b166000526003602052604060002060405190816020825491828152019160005260206000209060005b818110610c075761022e8561022281870382611e4f565b82546001600160e01b0316845260209093019260019283019201610bf0565b3461010e57602036600319011261010e576004356000526004602052602060018060a01b0360406000205416604051908152f35b3461010e5760e036600319011261010e57610c73611d69565b602435906044356064356001600160401b03811161010e57610c99903690600401611d95565b9290610ca3611d1b565b9260a435610caf611d2a565b928715610fe35742831115610fd2578515610fa557466000908152600460205260409020546001600160a01b031615610f94578115610f83575b60015496610cf5611fda565b5080546001600160a01b0319908116331782556001820180549091169055600281018054600383018c90556001600160a81b0319166001600160a01b0398909816979097178755600781019490945560058401916001600160401b038211610f6d57610d618354611df9565b601f8111610f30575b50600090601f8311600114610ec3579180610dd397969492600d9694600092610eb8575b50508160011b916000199060031b1c19161790555b610dbc87600b84019060ff801983541691151516179055565b600c820155019060ff801983541691151516179055565b546040516323b872dd60e01b81523360048201523060248201526044810185905290602090829060649082906000906001600160a01b03165af18015610eac57610e7f575b50336000908152600260205260409020610e3c906001600160e01b0384169061206d565b6040516000815292600060208501526040840152151560608301527f4386b702601eef55b7fc47f8aa8b0006bc59c1cedbac7a64140ebf7fb9c41e0260803393a3005b610ea09060203d602011610ea5575b610e988183611e4f565b810190611fa5565b610e18565b503d610e8e565b6040513d6000823e3d90fd5b013590508c80610d8e565b8382526020822091601f198416815b818110610f185750926001928592600d9896610dd39b9a989610610efe575b505050811b019055610da3565b0135600019600384901b60f8161c191690558c8080610ef1565b91936020600181928787013581550195019201610ed2565b610f5d90846000526020600020601f850160051c81019160208610610f63575b601f0160051c019061203f565b8a610d6a565b9091508190610f50565b634e487b7160e01b600052604160045260246000fd5b63082bdaff60e11b60005260046000fd5b634850d37b60e01b60005260046000fd5b81610fc1578315610ce9576318e87cd360e11b60005260046000fd5b633671b8bd60e21b60005260046000fd5b63b44ce7d360e01b60005260046000fd5b63738606af60e01b60005260046000fd5b3461010e57600036600319011261010e576005546040516001600160a01b039091168152602090f35b3461010e57602036600319011261010e5760043560015481101561010e5761104490611dda565b50805460018201546002830154600384015460048501546001600160a01b039384169594909316939061107960058301611e70565b93600683015460ff1694600784015490600a85015492600b86015460ff1694600c87015496600d015460ff16976040519b8c9b8c5260208c0152600160a01b60019003811660408c015260608b019060a01c60ff16906110d891611f14565b60808a015260a089015260c088016101a090526101a088016110f991611f21565b95151560e0880152610100870152610120860152151561014085015261016084015215156101808301520390f35b3461010e57604036600319011261010e57611140611d69565b6001600160a01b031660009081526002602052604090208054602435919082101561010e576020916100f591611dc2565b3461010e5760e036600319011261010e5761118a611d69565b611192611d7f565b906044356001600160401b03811161010e576111b2903690600401611d39565b92906064356001600160401b03811161010e576111d3903690600401611d95565b9290936111de611d1b565b9360a4356111ea611d2a565b6001600160a01b039093169788156116c75780156116b657861561169a57466000908152600460205260409020546001600160a01b031615610f94578115610f83575b60009560005b828110611669575060015498611247611fda565b5080546001600160a01b0319908116331782556001820180549091168d179055600281018054600383018b90556001600160a81b0319166001600160a01b039990991698909817600160a01b1788559460058601916001600160401b038211610f6d5781906112b68454611df9565b601f8111611637575b50600090601f83116001146115d1576000926115c6575b50508160011b916000199060031b1c19161790555b60088401906001600160401b038311610f6d57600160401b8311610f6d5781548383558084106115a8575b509060005260206000209060005b8381106115945750505061135061133a82612056565b916113486040519384611e4f565b808352612056565b6020820190601f1901368237600984019151906001600160401b038211610f6d57600160401b8211610f6d578254828455808310611544575b509160005260206000208160051c9160005b8381106114fe5750601f1981169003806114b0575b5050505081600d91610dbc88600b6113d59796019060ff801983541691151516179055565b546040516323b872dd60e01b81523360048201523060248201526044810183905290602090829060649082906000906001600160a01b03165af18015610eac57611493575b50336000526002602052611452604060002061143f60018060e01b038616809261206d565b856000526003602052604060002061206d565b604051938452600160208501526040840152151560608301527f4386b702601eef55b7fc47f8aa8b0006bc59c1cedbac7a64140ebf7fb9c41e0260803393a3005b6114ab9060203d602011610ea557610e988183611e4f565b61141a565b9260009360005b8181106114cf57505050015581600d6113d58b6113b0565b90919460206114f46001928489511515919060ff809160031b9316831b921b19161790565b96019291016114b7565b6000805b6020811061151757508382015560010161139b565b9590602061153b6001928985511515919060ff809160031b9316831b921b19161790565b92019601611502565b61157190846000526020600020601f80860160051c82019281871680611577575b500160051c019061203f565b8b611389565b6000198501908154906000199060200360031b1c16905538611565565b600190602083359301928185015501611324565b6115c09083600052846020600020918201910161203f565b8b611316565b013590508d806112d6565b84825260208220925090601f198416815b81811061161f5750908460019594939210611605575b505050811b0190556112eb565b0135600019600384901b60f8161c191690558d80806115f8565b919360206001819287870135815501950192016115e2565b61166390856000526020600020601f850160051c81019160208610610f6357601f0160051c019061203f565b8e6112bf565b96611675888484611fca565b3515610fe35761169360019161168c8a8686611fca565b3590611fbd565b9701611233565b81610fc157831561122d576318e87cd360e11b60005260046000fd5b6350018ba960e11b60005260046000fd5b63d92e233d60e01b60005260046000fd5b3461010e57608036600319011261010e576004356024356001600160401b03811161010e5761170b903690600401611d39565b6044356001600160401b03811161010e5761172a903690600401611d39565b91906064359384159485150361010e576117426120ae565b600154861015610b955761175586611dda565b5080549093906001600160a01b03163303611a2b5760078401544210610fd25760068401805460ff8116611a1a57868303611a095760009760005b8881106119f05750600387015489036119df5760ff600b88015416611901575b5060ff19166001179055600484018690558695949392919060005b81811061182b5787807f40d8c854b6d5329fd5fccae04f5a931d7529963fbab81aced7337394e737cb4d60208a604051908152a27f2fa311dce014989819445737ed8326c4710fac502c76951646f4df9f223faa84600080a26001600055005b909192939495965061183e818786611fca565b35611854575b60010190879695949392916117cb565b60028501546001600160a01b03169061186e818486611fca565b35916001600160a01b038316830361010e576118c892602091611892848b8a611fca565b60405163a9059cbb60e01b81526001600160a01b0390931660048401523560248301529093849190829060009082906044820190565b03925af1918215610eac576001926118e3575b509050611844565b6118fa9060203d8111610ea557610e988183611e4f565b50896118db565b466000908152600460205260409020546001600160a01b0316908115610f945760ff600d89015416159081156119d7575b50156119a8576020600c880154602460405180948193637ae560dd60e11b835260048301525afa908115610eac57600091611989575b5015611978576001905b906117b0565b635e56624f60e01b60005260046000fd5b6119a2915060203d602011610ea557610e988183611e4f565b8a611968565b50600190897f53141f3137af926a83f5d9cf0e9f3e507186f11b64c03fcbf68063e3167b4fbb600080a2611972565b90508b611932565b63f7e6651360e01b60005260046000fd5b98611a0260019161168c8c8c8b611fca565b9901611790565b63a121188760e01b60005260046000fd5b635df822fb60e01b60005260046000fd5b634510351d60e11b60005260046000fd5b3461010e57604036600319011261010e5760043560243580159081150361010e57611a656120ae565b600154821015610b9557611a7882611dda565b5080546001600160a01b03163303611a2b57600681019060ff825416611a1a57600a810190815491600882019485548410156116b65760ff600b84015416611c54575b50611ac68386611dc2565b90549060031b1c92600983018054821015611c3e5760005260206000208160051c019060f882549160031b169060ff6001831b921b19161790558054946000198614611c28576001611b78960180925560048301611b25858254611fbd565b90555414611c18575b60028101546001909101805460405163a9059cbb60e01b81526001600160a01b03918216600482015260248101859052959192602092879290911690829060009082906044820190565b03925af1938415610eac57602086927fc566b56f9fa851c8c74d53c6fae23cd074cf2e73d4ce69107c722ef3c408408d9260ff97611bfd575b50546040519485526001600160a01b031693a35416611bd2575b6001600055005b7f2fa311dce014989819445737ed8326c4710fac502c76951646f4df9f223faa84600080a280611bcb565b611c1390833d8511610ea557610e988183611e4f565b611bb1565b825460ff19166001178355611b2e565b634e487b7160e01b600052601160045260246000fd5b634e487b7160e01b600052603260045260246000fd5b466000908152600460205260409020546001600160a01b0316908115610f945760ff600d8501541615908115611d13575b5015611ce7576020600c840154602460405180948193637ae560dd60e11b835260048301525afa908115610eac57600091611cc8575b5015611978575b86611abb565b611ce1915060203d602011610ea557610e988183611e4f565b87611cbb565b50857f53141f3137af926a83f5d9cf0e9f3e507186f11b64c03fcbf68063e3167b4fbb600080a2611cc2565b905088611c85565b60843590811515820361010e57565b60c43590811515820361010e57565b9181601f8401121561010e578235916001600160401b03831161010e576020808501948460051b01011161010e57565b600435906001600160a01b038216820361010e57565b602435906001600160a01b038216820361010e57565b9181601f8401121561010e578235916001600160401b03831161010e576020838186019501011161010e57565b8054821015611c3e5760005260206000200190600090565b600154811015611c3e576001600052600e602060002091020190600090565b90600182811c92168015611e29575b6020831014611e1357565b634e487b7160e01b600052602260045260246000fd5b91607f1691611e08565b6101e081019081106001600160401b03821117610f6d57604052565b90601f801991011681019081106001600160401b03821117610f6d57604052565b9060405191826000825492611e8484611df9565b8084529360018116908115611ef25750600114611eab575b50611ea992500383611e4f565b565b90506000929192526020600020906000915b818310611ed6575050906020611ea99282010138611e9c565b6020919350806001915483858901015201910190918492611ebd565b905060209250611ea994915060ff191682840152151560051b82010138611e9c565b906002821015610b7f5752565b919082519283825260005b848110611f4d575050826000602080949584010152601f8019910116010190565b80602080928401015182828601015201611f2c565b602060408183019282815284518094520192019060005b818110611f865750505090565b82516001600160e01b0316845260209384019390920191600101611f79565b9081602091031261010e5751801515810361010e5790565b91908201809211611c2857565b9190811015611c3e5760051b0190565b600154600160401b811015610f6d5760018101600155600060015482101561202b5760019052600e027fb10e2d527612073b26eecdfd717e6a320cf44b4afac2b0732d9fcbe2b7fa0cf60190600090565b634e487b7160e01b81526032600452602490fd5b81811061204a575050565b6000815560010161203f565b6001600160401b038111610f6d5760051b60200190565b8054600160401b811015610f6d5761208a91600182018155611dc2565b81546001600160e01b0393841660039290921b91821b9390911b1916919091179055565b6002600054146120bf576002600055565b633ee5aeb560e01b60005260046000fdfea26469706673582212204034e36726751e0a0864b228e66b5369362f8e481f5c62db06889ea3a0071d2164736f6c634300081c0033",
  "linkReferences": {},
  "deployedLinkReferences": {}
}