{
  "_format": "hh-sol-artifact-1",
  "contractName": "VaultFactoryVerifiable",
  "sourceName": "contracts/VaultFactoryVerifiable.sol",
  "abi": [
    {
      "inputs": [],
      "stateMutability": "nonpayable",
      "type": "constructor"
    },
    {
      "inputs": [],
      "name": "FunderOverrideOnlyForVerifiableVaults",
      "type": "error"
    },
    {
      "inputs": [],
      "name": "IncorrectTotalPayout",
      "type": "error"
    },
    {
      "inputs": [],
      "name": "InvalidVaultId",
      "type": "error"
    },
    {
      "inputs": [],
      "name": "MilestoneAmountsCannotBeZero",
      "type": "error"
    },
    {
      "inputs": [],
      "name": "MismatchedArrays",
      "type": "error"
    },
    {
      "inputs": [],
      "name": "NoMilestonesToPay",
      "type": "error"
    },
    {
      "inputs": [],
      "name": "NotTheFunder",
      "type": "error"
    },
    {
      "inputs": [],
      "name": "ProofSetIdCannotBeZeroForVerifiableVault",
      "type": "error"
    },
    {
      "inputs": [],
      "name": "ProofSetIdMustBeZeroForNonVerifiableVault",
      "type": "error"
    },
    {
      "inputs": [],
      "name": "ProofSetNotLive",
      "type": "error"
    },
    {
      "inputs": [],
      "name": "ReentrancyGuardReentrantCall",
      "type": "error"
    },
    {
      "inputs": [],
      "name": "ReleaseTimeNotMet",
      "type": "error"
    },
    {
      "inputs": [],
      "name": "VaultIsFinalized",
      "type": "error"
    },
    {
      "inputs": [],
      "name": "VerifiableStorageNotSupportedOnChain",
      "type": "error"
    },
    {
      "inputs": [],
      "name": "ZeroAddress",
      "type": "error"
    },
    {
      "anonymous": false,
      "inputs": [
        {
          "indexed": true,
          "internalType": "uint256",
          "name": "vaultId",
          "type": "uint256"
        }
      ],
      "name": "FunderVerificationOverridden",
      "type": "event"
    },
    {
      "anonymous": false,
      "inputs": [
        {
          "indexed": true,
          "internalType": "uint256",
          "name": "vaultId",
          "type": "uint256"
        },
        {
          "indexed": false,
          "internalType": "uint256",
          "name": "totalAmount",
          "type": "uint256"
        }
      ],
      "name": "FundsDistributed",
      "type": "event"
    },
    {
      "anonymous": false,
      "inputs": [
        {
          "indexed": true,
          "internalType": "uint256",
          "name": "vaultId",
          "type": "uint256"
        },
        {
          "indexed": true,
          "internalType": "address",
          "name": "beneficiary",
          "type": "address"
        },
        {
          "indexed": false,
          "internalType": "uint256",
          "name": "amount",
          "type": "uint256"
        }
      ],
      "name": "MilestoneReleased",
      "type": "event"
    },
    {
      "anonymous": false,
      "inputs": [
        {
          "indexed": true,
          "internalType": "uint256",
          "name": "vaultId",
          "type": "uint256"
        }
      ],
      "name": "VaultCompleted",
      "type": "event"
    },
    {
      "anonymous": false,
      "inputs": [
        {
          "indexed": true,
          "internalType": "uint256",
          "name": "vaultId",
          "type": "uint256"
        },
        {
          "indexed": true,
          "internalType": "address",
          "name": "funder",
          "type": "address"
        },
        {
          "indexed": false,
          "internalType": "address",
          "name": "beneficiary",
          "type": "address"
        },
        {
          "indexed": false,
          "internalType": "enum VaultFactoryVerifiable.VaultType",
          "name": "vaultType",
          "type": "uint8"
        },
        {
          "indexed": false,
          "internalType": "uint256",
          "name": "totalAmount",
          "type": "uint256"
        },
        {
          "indexed": false,
          "internalType": "bool",
          "name": "isVerifiable",
          "type": "bool"
        }
      ],
      "name": "VaultCreated",
      "type": "event"
    },
    {
      "inputs": [
        {
          "internalType": "address",
          "name": "",
          "type": "address"
        },
        {
          "internalType": "uint256",
          "name": "",
          "type": "uint256"
        }
      ],
      "name": "beneficiaryVaultIds",
      "outputs": [
        {
          "internalType": "uint224",
          "name": "",
          "type": "uint224"
        }
      ],
      "stateMutability": "view",
      "type": "function"
    },
    {
      "inputs": [
        {
          "internalType": "uint256",
          "name": "",
          "type": "uint256"
        }
      ],
      "name": "chainIdToPdpVerifier",
      "outputs": [
        {
          "internalType": "address",
          "name": "",
          "type": "address"
        }
      ],
      "stateMutability": "view",
      "type": "function"
    },
    {
      "inputs": [
        {
          "internalType": "address",
          "name": "_beneficiary",
          "type": "address"
        },
        {
          "internalType": "address",
          "name": "_token",
          "type": "address"
        },
        {
          "internalType": "uint256[]",
          "name": "_milestonePayouts",
          "type": "uint256[]"
        },
        {
          "internalType": "string",
          "name": "_termsCID",
          "type": "string"
        },
        {
          "internalType": "bool",
          "name": "_isVerifiable",
          "type": "bool"
        },
        {
          "internalType": "uint256",
          "name": "_synapseProofSetId",
          "type": "uint256"
        },
        {
          "internalType": "bool",
          "name": "_funderCanOverrideVerification",
          "type": "bool"
        }
      ],
      "name": "createMilestoneVault",
      "outputs": [],
      "stateMutability": "nonpayable",
      "type": "function"
    },
    {
      "inputs": [
        {
          "internalType": "address",
          "name": "_token",
          "type": "address"
        },
        {
          "internalType": "uint256",
          "name": "_amount",
          "type": "uint256"
        },
        {
          "internalType": "uint256",
          "name": "_releaseTime",
          "type": "uint256"
        },
        {
          "internalType": "string",
          "name": "_termsCID",
          "type": "string"
        },
        {
          "internalType": "bool",
          "name": "_isVerifiable",
          "type": "bool"
        },
        {
          "internalType": "uint256",
          "name": "_synapseProofSetId",
          "type": "uint256"
        },
        {
          "internalType": "bool",
          "name": "_funderCanOverrideVerification",
          "type": "bool"
        }
      ],
      "name": "createPrizePoolVault",
      "outputs": [],
      "stateMutability": "nonpayable",
      "type": "function"
    },
    {
      "inputs": [
        {
          "internalType": "uint256",
          "name": "_vaultId",
          "type": "uint256"
        },
        {
          "internalType": "address[]",
          "name": "_recipients",
          "type": "address[]"
        },
        {
          "internalType": "uint256[]",
          "name": "_amounts",
          "type": "uint256[]"
        },
        {
          "internalType": "bool",
          "name": "_funderBypassVerification",
          "type": "bool"
        }
      ],
      "name": "distributePrizePool",
      "outputs": [],
      "stateMutability": "nonpayable",
      "type": "function"
    },
    {
      "inputs": [
        {
          "internalType": "address",
          "name": "",
          "type": "address"
        },
        {
          "internalType": "uint256",
          "name": "",
          "type": "uint256"
        }
      ],
      "name": "funderVaultIds",
      "outputs": [
        {
          "internalType": "uint224",
          "name": "",
          "type": "uint224"
        }
      ],
      "stateMutability": "view",
      "type": "function"
    },
    {
      "inputs": [
        {
          "internalType": "uint256",
          "name": "_vaultId",
          "type": "uint256"
        }
      ],
      "name": "getVaultDetails",
      "outputs": [
        {
          "components": [
            {
              "internalType": "uint256",
              "name": "totalAmount",
              "type": "uint256"
            },
            {
              "internalType": "uint256",
              "name": "amountWithdrawn",
              "type": "uint256"
            },
            {
              "internalType": "uint256",
              "name": "releaseTime",
              "type": "uint256"
            },
            {
              "internalType": "uint256",
              "name": "nextMilestoneToPay",
              "type": "uint256"
            },
            {
              "internalType": "uint256",
              "name": "synapseProofSetId",
              "type": "uint256"
            },
            {
              "internalType": "address",
              "name": "funder",
              "type": "address"
            },
            {
              "internalType": "address",
              "name": "beneficiary",
              "type": "address"
            },
            {
              "internalType": "address",
              "name": "tokenAddress",
              "type": "address"
            },
            {
              "internalType": "string",
              "name": "termsCID",
              "type": "string"
            },
            {
              "internalType": "uint256[]",
              "name": "milestonePayouts",
              "type": "uint256[]"
            },
            {
              "internalType": "bool[]",
              "name": "milestonesPaid",
              "type": "bool[]"
            },
            {
              "internalType": "bool",
              "name": "finalized",
              "type": "bool"
            },
            {
              "internalType": "bool",
              "name": "isVerifiable",
              "type": "bool"
            },
            {
              "internalType": "bool",
              "name": "funderCanOverrideVerification",
              "type": "bool"
            },
            {
              "internalType": "enum VaultFactoryVerifiable.VaultType",
              "name": "vaultType",
              "type": "uint8"
            }
          ],
          "internalType": "struct VaultFactoryVerifiable.Vault",
          "name": "",
          "type": "tuple"
        }
      ],
      "stateMutability": "view",
      "type": "function"
    },
    {
      "inputs": [
        {
          "internalType": "address",
          "name": "_beneficiary",
          "type": "address"
        }
      ],
      "name": "getVaultIdsAsBeneficiary",
      "outputs": [
        {
          "internalType": "uint224[]",
          "name": "",
          "type": "uint224[]"
        }
      ],
      "stateMutability": "view",
      "type": "function"
    },
    {
      "inputs": [
        {
          "internalType": "address",
          "name": "_funder",
          "type": "address"
        }
      ],
      "name": "getVaultIdsFundedByUser",
      "outputs": [
        {
          "internalType": "uint224[]",
          "name": "",
          "type": "uint224[]"
        }
      ],
      "stateMutability": "view",
      "type": "function"
    },
    {
      "inputs": [],
      "name": "owner",
      "outputs": [
        {
          "internalType": "address",
          "name": "",
          "type": "address"
        }
      ],
      "stateMutability": "view",
      "type": "function"
    },
    {
      "inputs": [
        {
          "internalType": "uint256",
          "name": "_vaultId",
          "type": "uint256"
        },
        {
          "internalType": "bool",
          "name": "_funderBypassVerification",
          "type": "bool"
        }
      ],
      "name": "releaseNextMilestone",
      "outputs": [],
      "stateMutability": "nonpayable",
      "type": "function"
    },
    {
      "inputs": [
        {
          "internalType": "uint256",
          "name": "_chainId",
          "type": "uint256"
        },
        {
          "internalType": "address",
          "name": "_pdpVerifierAddress",
          "type": "address"
        }
      ],
      "name": "setPdpVerifierContractForChain",
      "outputs": [],
      "stateMutability": "nonpayable",
      "type": "function"
    },
    {
      "inputs": [
        {
          "internalType": "uint256",
          "name": "",
          "type": "uint256"
        }
      ],
      "name": "vaults",
      "outputs": [
        {
          "internalType": "uint256",
          "name": "totalAmount",
          "type": "uint256"
        },
        {
          "internalType": "uint256",
          "name": "amountWithdrawn",
          "type": "uint256"
        },
        {
          "internalType": "uint256",
          "name": "releaseTime",
          "type": "uint256"
        },
        {
          "internalType": "uint256",
          "name": "nextMilestoneToPay",
          "type": "uint256"
        },
        {
          "internalType": "uint256",
          "name": "synapseProofSetId",
          "type": "uint256"
        },
        {
          "internalType": "address",
          "name": "funder",
          "type": "address"
        },
        {
          "internalType": "address",
          "name": "beneficiary",
          "type": "address"
        },
        {
          "internalType": "address",
          "name": "tokenAddress",
          "type": "address"
        },
        {
          "internalType": "string",
          "name": "termsCID",
          "type": "string"
        },
        {
          "internalType": "bool",
          "name": "finalized",
          "type": "bool"
        },
        {
          "internalType": "bool",
          "name": "isVerifiable",
          "type": "bool"
        },
        {
          "internalType": "bool",
          "name": "funderCanOverrideVerification",
          "type": "bool"
        },
        {
          "internalType": "enum VaultFactoryVerifiable.VaultType",
          "name": "vaultType",
          "type": "uint8"
        }
      ],
      "stateMutability": "view",
      "type": "function"
    }
  ],
  "bytecode": "0x60808060405234602c576001600055600580546001600160a01b0319163317905561211890816100328239f35b600080fdfe6080604052600436101561001257600080fd5b60003560e01c8063100b987514611a4b57806370cf9092146116e85780637936c380146111625780637937a5fc146111185780638c64ea4a1461101c5780638da5cb5b14610ff357806398f064bc14610c4f578063b7680f1614610c1b578063c0a9d8bd14610b9b578063c0b579c014610251578063c8a107b2146101c1578063c92966a5146101135763ce391f73146100ab57600080fd5b3461010e57604036600319011261010e576100c4611d7b565b6001600160a01b031660009081526003602052604090208054602435919082101561010e576020916100f591611dd4565b905460405160039290921b1c6001600160e01b03168152f35b600080fd5b3461010e57604036600319011261010e5761012c611d91565b6005546001600160a01b0316330361017257600435600052600460205260406000209060018060a01b03166bffffffffffffffffffffffff60a01b825416179055600080f35b60405162461bcd60e51b815260206004820152602160248201527f4f6e6c79206f776e65722063616e2063616c6c20746869732066756e6374696f6044820152603760f91b6064820152608490fd5b3461010e57602036600319011261010e576001600160a01b036101e2611d7b565b166000526002602052604060002060405190816020825491828152019160005260206000209060005b8181106102325761022e8561022281870382611e61565b60405191829182611f74565b0390f35b82546001600160e01b031684526020909301926001928301920161020b565b3461010e57602036600319011261010e5760043560006101c060405161027681611e45565b8281528260208201528260408201528260608201528260808201528260a08201528260c08201528260e08201526060610100820152606061012082015260606101408201528261016082015282610180820152826101a08201520152600154811015610b8a576102e590611dec565b506040516102f281611e45565b8154815260018201546020820190815260028301546040830190815260038401546060840190815260048501546080850190815260058601546001600160a01b0390811660a087019081526006880154821660c08801908152600789015490921660e08801908152929790949290919061036e60088401611e82565b916101008901928352600984019660405180896020829b5493848152019060005260206000209260005b818110610b715750506103ad92500389611e61565b6101208a01978852600a85019a8b95604051602081985491828152019d6000526020600020906000915b81601f84011061098e578e9f9d9e9a9b9c9d600b94936104fb938c935491818110610978575b81811061095f575b818110610946575b81811061092d575b818110610915575b8181106108fc575b8181106108e3575b8181106108ca575b8181106108b1575b818110610898575b81811061087f575b818110610866575b81811061084d575b818110610834575b81811061081b575b818110610802575b8181106107e9575b8181106107d0575b8181106107b7575b81811061079e575b818110610785575b81811061076c575b818110610753575b81811061073a575b818110610721575b818110610708575b8181106106ef575b8181106106d6575b8181106106bd575b8181106106a4575b81811061068b575b1061067b575b500389611e61565b6101408901978852015498899860ff6101a06101608b019a828d1615158c528261018082019d60081c1615158d52019b818160101c1615158d5260181c169d6101c081019e6002811015610665578f526040805160208082529251928101929092529d519d81019d909d525160608d01525160808c01525160a08b0152516001600160a01b0390811660c08b01529051811660e08a0152905116610100880152516101e06101208801526105b490610200880190611f26565b945194601f1987820301610140880152855190818152602001956020019060005b81811061064f575050505193601f19868203016101608701526020808651928381520195019060005b818110610637575050509184959161022e935115156101808701525115156101a08601525115156101c0850152516101e0840190611f67565b825115158752602096870196909201916001016105fe565b82518852602097880197909201916001016105d5565b634e487b7160e01b600052602160045260246000fd5b60f81c15158152602001386104f3565b92602060019160ff8560f01c16151581520193016104ed565b92602060019160ff8560e81c16151581520193016104e5565b92602060019160ff8560e01c16151581520193016104dd565b92602060019160ff8560d81c16151581520193016104d5565b92602060019160ff8560d01c16151581520193016104cd565b92602060019160ff8560c81c16151581520193016104c5565b92602060019160ff8560c01c16151581520193016104bd565b92602060019160ff8560b81c16151581520193016104b5565b92602060019160ff8560b01c16151581520193016104ad565b92602060019160ff8560a81c16151581520193016104a5565b92602060019160ff8560a01c161515815201930161049d565b92602060019160ff8560981c1615158152019301610495565b92602060019160ff8560901c161515815201930161048d565b92602060019160ff8560881c1615158152019301610485565b92602060019160ff8560801c161515815201930161047d565b92602060019160ff8560781c1615158152019301610475565b92602060019160ff8560701c161515815201930161046d565b92602060019160ff8560681c1615158152019301610465565b92602060019160ff8560601c161515815201930161045d565b92602060019160ff8560581c1615158152019301610455565b92602060019160ff8560501c161515815201930161044d565b92602060019160ff8560481c1615158152019301610445565b92602060019160ff8560401c161515815201930161043d565b92602060019160ff8560381c1615158152019301610435565b92602060019160ff8560301c161515815201930161042d565b92602060019160ff8560281c1615158152019301610425565b92602060019160ff85831c161515815201930161041d565b92602060019160ff8560181c1615158152019301610415565b92602060019160ff8560101c161515815201930161040d565b92602060019160ff8560081c1615158152019301610405565b92602060019160ff8516151581520193016103fd565b9e8f5460ff8116151582528060081c60ff16151560208301528060101c60ff16151560408301528060181c60ff16151560608301528060201c60ff16151560808301528060281c60ff16151560a08301528060301c60ff16151560c08301528060381c60ff16151560e08301528060401c60ff1615156101008301528060481c60ff1615156101208301528060501c60ff1615156101408301528060581c60ff1615156101608301528060601c60ff1615156101808301528060681c60ff1615156101a08301528060701c60ff1615156101c08301528060781c60ff1615156101e08301528060801c60ff1615156102008301528060881c60ff1615156102208301528060901c60ff1615156102408301528060981c60ff1615156102608301528060a01c60ff1615156102808301528060a81c60ff1615156102a08301528060b01c60ff1615156102c08301528060b81c60ff1615156102e08301528060c01c60ff1615156103008301528060c81c60ff1615156103208301528060d01c60ff1615156103408301528060d81c60ff1615156103608301528060e01c60ff1615156103808301528060e81c60ff1615156103a08301528060f01c60ff1615156103c083015260f81c15156103e0820152610400019e60010191602001916103d7565b845483526001948501948d945060209093019201610398565b6319d2ee1360e01b60005260046000fd5b3461010e57602036600319011261010e576001600160a01b03610bbc611d7b565b166000526003602052604060002060405190816020825491828152019160005260206000209060005b818110610bfc5761022e8561022281870382611e61565b82546001600160e01b0316845260209093019260019283019201610be5565b3461010e57602036600319011261010e576004356000526004602052602060018060a01b0360406000205416604051908152f35b3461010e5760e036600319011261010e57610c68611d7b565b602435906044356064356001600160401b03811161010e57610c8e903690600401611da7565b610c99939193611d2d565b9260a43590610ca6611d3c565b918715610fe25742821115610fd1578515610fa457466000908152600460205260409020546001600160a01b031615610f93578015610f82575b60015496610cec611fec565b506005810180546001600160a01b03199081163317909155600682018054821690556007820180549091166001600160a01b038916179055898155600b8101805463ff0000001916815560028201949094559460088601916001600160401b038211610f6c57610d5c8354611e0b565b601f8111610f2f575b50600090601f8311600114610ec25792826000989693610dd19693600399968b92610eb7575b50508160011b918a19908a1b1c19161790555b815461ffff191689151560081b61ff001617825560048501559062ff0000825491151560101b169062ff00001916179055565b01556040516323b872dd60e01b81523360048201523060248201526044810185905290602090829060649082906000906001600160a01b03165af18015610eab57610e7e575b50336000908152600260205260409020610e3b906001600160e01b0384169061207f565b6040516000815292600060208501526040840152151560608301527f4386b702601eef55b7fc47f8aa8b0006bc59c1cedbac7a64140ebf7fb9c41e0260803393a3005b610e9f9060203d602011610ea4575b610e978183611e61565b810190611fb7565b610e17565b503d610e8d565b6040513d6000823e3d90fd5b013590508e80610d8b565b8382526020822091601f198416815b818110610f17575093610dd1969360039996936001938360009d9b9810610f00575b505050811b019055610d9e565b01358b19838c1b60f8161c191690558e8080610ef3565b91936020600181928787013581550195019201610ed1565b610f5c90846000526020600020601f850160051c81019160208610610f62575b601f0160051c0190612051565b8b610d65565b9091508190610f4f565b634e487b7160e01b600052604160045260246000fd5b63082bdaff60e11b60005260046000fd5b634850d37b60e01b60005260046000fd5b80610fc0578215610ce0576318e87cd360e11b60005260046000fd5b633671b8bd60e21b60005260046000fd5b63b44ce7d360e01b60005260046000fd5b63738606af60e01b60005260046000fd5b3461010e57600036600319011261010e576005546040516001600160a01b039091168152602090f35b3461010e57602036600319011261010e5760043560015481101561010e5761104390611dec565b50805460018201549161022e6110dc6002830154926003810154600482015460018060a01b0360058401541660018060a01b036006850154169160018060a01b0360078601541693600b61109960088801611e82565b960154986040519b8c9b8c5260208c015260408b015260608a0152608089015260a088015260c087015260e08601526101a06101008601526101a0850190611f26565b9160ff8116151561012085015260ff8160081c16151561014085015260ff8160101c16151561016085015260ff61018085019160181c16611f67565b3461010e57604036600319011261010e57611131611d7b565b6001600160a01b031660009081526002602052604090208054602435919082101561010e576020916100f591611dd4565b3461010e5760e036600319011261010e5761117b611d7b565b611183611d91565b6044356001600160401b03811161010e576111a2903690600401611d4b565b6064929192356001600160401b03811161010e576111c4903690600401611da7565b9290946111cf611d2d565b9360a4356111db611d3c565b6001600160a01b039093169788156116d75785156116c65786156116aa57466000908152600460205260409020546001600160a01b031615610f93578115610f82575b60009560005b818110611679575060015498611238611fec565b506005810180546001600160a01b0319908116331790915560068201805482168e1790556007820180549091166001600160a01b038a16179055888155600b8101805463ff000000191663010000001781559590936008850191906001600160401b038211610f6c5781906112ad8454611e0b565b601f8111611647575b50600090601f83116001146115e1576000926115d6575b50508160011b916000199060031b1c19161790555b60098301906001600160401b038311610f6c57600160401b8311610f6c5781548383558084106115b8575b509060005260206000209060005b8381106115a45750505061134761133182612068565b9161133f6040519384611e61565b808352612068565b6020820190601f1901368237600a83019151906001600160401b038211610f6c57600160401b8211610f6c578254828455808310611554575b509160005260206000208160051c9160005b83811061150e5750601f1981169003806114c0575b5050600060038401555050825461ff0088151560081b1661ffff1990911617835560040155805462ff0000191691151560101b62ff0000169190911790555b6040516323b872dd60e01b81523360048201523060248201526044810183905290602090829060649082906000906001600160a01b03165af18015610eab576114a3575b50336000526002602052611462604060002061144f60018060e01b038616809261207f565b856000526003602052604060002061207f565b604051938452600160208501526040840152151560608301527f4386b702601eef55b7fc47f8aa8b0006bc59c1cedbac7a64140ebf7fb9c41e0260803393a3005b6114bb9060203d602011610ea457610e978183611e61565b61142a565b9260009360005b8181106114df57505050015560046113e68b806113a7565b90919460206115046001928489511515919060ff809160031b9316831b921b19161790565b96019291016114c7565b6000805b60208110611527575083820155600101611392565b9590602061154b6001928985511515919060ff809160031b9316831b921b19161790565b92019601611512565b61158190846000526020600020601f80860160051c82019281871680611587575b500160051c0190612051565b8c611380565b6000198501908154906000199060200360031b1c16905538611575565b60019060208335930192818501550161131b565b6115d090836000528460206000209182019101612051565b8c61130d565b013590508e806112cd565b84825260208220925090601f198416815b81811061162f5750908460019594939210611615575b505050811b0190556112e2565b0135600019600384901b60f8161c191690558e8080611608565b919360206001819287870135815501950192016115f2565b61167390856000526020600020601f850160051c81019160208610610f6257601f0160051c0190612051565b8f6112b6565b9661168588838c611fdc565b3515610fe2576116a360019161169c8a858e611fdc565b3590611fcf565b9701611224565b81610fc057831561121e576318e87cd360e11b60005260046000fd5b6350018ba960e11b60005260046000fd5b63d92e233d60e01b60005260046000fd5b3461010e57608036600319011261010e576004356024356001600160401b03811161010e5761171b903690600401611d4b565b6044356001600160401b03811161010e5761173a903690600401611d4b565b91906064359384159485150361010e576117526120c0565b600154861015610b8a5761176586611dec565b5060058101549093906001600160a01b03163303611a3a5760028401544210610fd157600b8401805460ff8116611a2957868303611a185760009760005b8881106119ff5750865489036119ee5760ff8260081c16611911575b50906001899897969594939260ff191617905585600185015560005b81811061183b5787807f40d8c854b6d5329fd5fccae04f5a931d7529963fbab81aced7337394e737cb4d60208a604051908152a27f2fa311dce014989819445737ed8326c4710fac502c76951646f4df9f223faa84600080a26001600055005b909192939495965061184e818786611fdc565b35611864575b60010190879695949392916117db565b60078501546001600160a01b03169061187e818486611fdc565b35916001600160a01b038316830361010e576118d8926020916118a2848b8a611fdc565b60405163a9059cbb60e01b81526001600160a01b0390931660048401523560248301529093849190829060009082906044820190565b03925af1918215610eab576001926118f3575b509050611854565b61190a9060203d8111610ea457610e978183611e61565b50896118eb565b466000908152600460205260409020546001600160a01b0316908115610f935760ff8360101c16159081156119e6575b50156119b75760206004880154602460405180948193637ae560dd60e11b835260048301525afa908115610eab57600091611998575b5015611987576001905b906117bf565b635e56624f60e01b60005260046000fd5b6119b1915060203d602011610ea457610e978183611e61565b8a611977565b50600190897f53141f3137af926a83f5d9cf0e9f3e507186f11b64c03fcbf68063e3167b4fbb600080a2611981565b90508b611941565b63f7e6651360e01b60005260046000fd5b98611a1160019161169c8c8c8b611fdc565b99016117a3565b63a121188760e01b60005260046000fd5b635df822fb60e01b60005260046000fd5b634510351d60e11b60005260046000fd5b3461010e57604036600319011261010e5760043560243580159081150361010e57611a746120c0565b600154821015610b8a57611a8782611dec565b5060058101546001600160a01b03163303611a3a57600b81019081549060ff8216611a295760038101805492600983019586548510156116c65760ff8260081c16611c67575b5050611ad98386611dd4565b90549060031b1c92600a83018054821015611c515760005260206000208160051c019060f882549160031b169060ff6001831b921b19161790558054946000198614611c3b576001611b8b960180925560018301611b38858254611fcf565b90555414611c2b575b60078101546006909101805460405163a9059cbb60e01b81526001600160a01b03918216600482015260248101859052959192602092879290911690829060009082906044820190565b03925af1938415610eab57602086927fc566b56f9fa851c8c74d53c6fae23cd074cf2e73d4ce69107c722ef3c408408d9260ff97611c10575b50546040519485526001600160a01b031693a35416611be5575b6001600055005b7f2fa311dce014989819445737ed8326c4710fac502c76951646f4df9f223faa84600080a280611bde565b611c2690833d8511610ea457610e978183611e61565b611bc4565b825460ff19166001178355611b41565b634e487b7160e01b600052601160045260246000fd5b634e487b7160e01b600052603260045260246000fd5b466000908152600460205260409020546001600160a01b0316918215610f935760101c60ff1615908115611d25575b5015611cf95760206004840154602460405180948193637ae560dd60e11b835260048301525afa908115610eab57600091611cda575b5015611987575b8680611acd565b611cf3915060203d602011610ea457610e978183611e61565b87611ccc565b50857f53141f3137af926a83f5d9cf0e9f3e507186f11b64c03fcbf68063e3167b4fbb600080a2611cd3565b905088611c96565b60843590811515820361010e57565b60c43590811515820361010e57565b9181601f8401121561010e578235916001600160401b03831161010e576020808501948460051b01011161010e57565b600435906001600160a01b038216820361010e57565b602435906001600160a01b038216820361010e57565b9181601f8401121561010e578235916001600160401b03831161010e576020838186019501011161010e57565b8054821015611c515760005260206000200190600090565b600154811015611c51576001600052600c602060002091020190600090565b90600182811c92168015611e3b575b6020831014611e2557565b634e487b7160e01b600052602260045260246000fd5b91607f1691611e1a565b6101e081019081106001600160401b03821117610f6c57604052565b90601f801991011681019081106001600160401b03821117610f6c57604052565b9060405191826000825492611e9684611e0b565b8084529360018116908115611f045750600114611ebd575b50611ebb92500383611e61565b565b90506000929192526020600020906000915b818310611ee8575050906020611ebb9282010138611eae565b6020919350806001915483858901015201910190918492611ecf565b905060209250611ebb94915060ff191682840152151560051b82010138611eae565b919082519283825260005b848110611f52575050826000602080949584010152601f8019910116010190565b80602080928401015182828601015201611f31565b9060028210156106655752565b602060408183019282815284518094520192019060005b818110611f985750505090565b82516001600160e01b0316845260209384019390920191600101611f8b565b9081602091031261010e5751801515810361010e5790565b91908201809211611c3b57565b9190811015611c515760051b0190565b600154600160401b811015610f6c5760018101600155600060015482101561203d5760019052600c027fb10e2d527612073b26eecdfd717e6a320cf44b4afac2b0732d9fcbe2b7fa0cf60190600090565b634e487b7160e01b81526032600452602490fd5b81811061205c575050565b60008155600101612051565b6001600160401b038111610f6c5760051b60200190565b8054600160401b811015610f6c5761209c91600182018155611dd4565b81546001600160e01b0393841660039290921b91821b9390911b1916919091179055565b6002600054146120d1576002600055565b633ee5aeb560e01b60005260046000fdfea26469706673582212206d24c7e817511f9555ce57585b6f1c4675dd5f27973e701aef9e9508775e6aa164736f6c634300081c0033",
  "linkReferences": {},
  "deployedLinkReferences": {}
}