{
  "_format": "hh-sol-artifact-1",
  "contractName": "VaultFactory",
  "sourceName": "contracts/VaultFactory.sol",
  "abi": [
    {
      "inputs": [],
      "name": "IncorrectTotalPayout",
      "type": "error"
    },
    {
      "inputs": [],
      "name": "InvalidVaultId",
      "type": "error"
    },
    {
      "inputs": [],
      "name": "MilestoneAmountsCannotBeZero",
      "type": "error"
    },
    {
      "inputs": [],
      "name": "MismatchedArrays",
      "type": "error"
    },
    {
      "inputs": [],
      "name": "NoMilestonesToPay",
      "type": "error"
    },
    {
      "inputs": [],
      "name": "NotTheFunder",
      "type": "error"
    },
    {
      "inputs": [],
      "name": "ReentrancyGuardReentrantCall",
      "type": "error"
    },
    {
      "inputs": [],
      "name": "ReleaseTimeNotMet",
      "type": "error"
    },
    {
      "inputs": [],
      "name": "VaultIsFinalized",
      "type": "error"
    },
    {
      "inputs": [],
      "name": "ZeroAddress",
      "type": "error"
    },
    {
      "anonymous": false,
      "inputs": [
        {
          "indexed": true,
          "internalType": "uint256",
          "name": "vaultId",
          "type": "uint256"
        },
        {
          "indexed": false,
          "internalType": "uint256",
          "name": "totalAmount",
          "type": "uint256"
        }
      ],
      "name": "FundsDistributed",
      "type": "event"
    },
    {
      "anonymous": false,
      "inputs": [
        {
          "indexed": true,
          "internalType": "uint256",
          "name": "vaultId",
          "type": "uint256"
        },
        {
          "indexed": true,
          "internalType": "address",
          "name": "beneficiary",
          "type": "address"
        },
        {
          "indexed": false,
          "internalType": "uint256",
          "name": "amount",
          "type": "uint256"
        }
      ],
      "name": "MilestoneReleased",
      "type": "event"
    },
    {
      "anonymous": false,
      "inputs": [
        {
          "indexed": true,
          "internalType": "uint256",
          "name": "vaultId",
          "type": "uint256"
        }
      ],
      "name": "VaultCompleted",
      "type": "event"
    },
    {
      "anonymous": false,
      "inputs": [
        {
          "indexed": true,
          "internalType": "uint256",
          "name": "vaultId",
          "type": "uint256"
        },
        {
          "indexed": true,
          "internalType": "address",
          "name": "funder",
          "type": "address"
        },
        {
          "indexed": false,
          "internalType": "address",
          "name": "beneficiary",
          "type": "address"
        },
        {
          "indexed": false,
          "internalType": "enum VaultFactory.VaultType",
          "name": "vaultType",
          "type": "uint8"
        },
        {
          "indexed": false,
          "internalType": "uint256",
          "name": "totalAmount",
          "type": "uint256"
        }
      ],
      "name": "VaultCreated",
      "type": "event"
    },
    {
      "inputs": [
        {
          "internalType": "address",
          "name": "",
          "type": "address"
        },
        {
          "internalType": "uint256",
          "name": "",
          "type": "uint256"
        }
      ],
      "name": "beneficiaryVaultIds",
      "outputs": [
        {
          "internalType": "uint256",
          "name": "",
          "type": "uint256"
        }
      ],
      "stateMutability": "view",
      "type": "function"
    },
    {
      "inputs": [
        {
          "internalType": "address",
          "name": "_beneficiary",
          "type": "address"
        },
        {
          "internalType": "address",
          "name": "_token",
          "type": "address"
        },
        {
          "internalType": "uint256[]",
          "name": "_milestonePayouts",
          "type": "uint256[]"
        },
        {
          "internalType": "string",
          "name": "_termsCID",
          "type": "string"
        }
      ],
      "name": "createMilestoneVault",
      "outputs": [],
      "stateMutability": "nonpayable",
      "type": "function"
    },
    {
      "inputs": [
        {
          "internalType": "address",
          "name": "_token",
          "type": "address"
        },
        {
          "internalType": "uint256",
          "name": "_amount",
          "type": "uint256"
        },
        {
          "internalType": "uint256",
          "name": "_releaseTime",
          "type": "uint256"
        },
        {
          "internalType": "string",
          "name": "_termsCID",
          "type": "string"
        }
      ],
      "name": "createPrizePoolVault",
      "outputs": [],
      "stateMutability": "nonpayable",
      "type": "function"
    },
    {
      "inputs": [
        {
          "internalType": "uint256",
          "name": "_vaultId",
          "type": "uint256"
        },
        {
          "internalType": "address[]",
          "name": "_recipients",
          "type": "address[]"
        },
        {
          "internalType": "uint256[]",
          "name": "_amounts",
          "type": "uint256[]"
        }
      ],
      "name": "distributePrizePool",
      "outputs": [],
      "stateMutability": "nonpayable",
      "type": "function"
    },
    {
      "inputs": [
        {
          "internalType": "address",
          "name": "",
          "type": "address"
        },
        {
          "internalType": "uint256",
          "name": "",
          "type": "uint256"
        }
      ],
      "name": "funderVaultIds",
      "outputs": [
        {
          "internalType": "uint256",
          "name": "",
          "type": "uint256"
        }
      ],
      "stateMutability": "view",
      "type": "function"
    },
    {
      "inputs": [
        {
          "internalType": "uint256",
          "name": "_vaultId",
          "type": "uint256"
        }
      ],
      "name": "getVaultDetails",
      "outputs": [
        {
          "components": [
            {
              "internalType": "address",
              "name": "funder",
              "type": "address"
            },
            {
              "internalType": "address",
              "name": "beneficiary",
              "type": "address"
            },
            {
              "internalType": "contract IERC20",
              "name": "token",
              "type": "address"
            },
            {
              "internalType": "enum VaultFactory.VaultType",
              "name": "vaultType",
              "type": "uint8"
            },
            {
              "internalType": "uint256",
              "name": "totalAmount",
              "type": "uint256"
            },
            {
              "internalType": "uint256",
              "name": "amountWithdrawn",
              "type": "uint256"
            },
            {
              "internalType": "string",
              "name": "termsCID",
              "type": "string"
            },
            {
              "internalType": "bool",
              "name": "finalized",
              "type": "bool"
            },
            {
              "internalType": "uint256",
              "name": "releaseTime",
              "type": "uint256"
            },
            {
              "internalType": "uint256[]",
              "name": "milestonePayouts",
              "type": "uint256[]"
            },
            {
              "internalType": "bool[]",
              "name": "milestonesPaid",
              "type": "bool[]"
            },
            {
              "internalType": "uint256",
              "name": "nextMilestoneToPay",
              "type": "uint256"
            }
          ],
          "internalType": "struct VaultFactory.Vault",
          "name": "",
          "type": "tuple"
        }
      ],
      "stateMutability": "view",
      "type": "function"
    },
    {
      "inputs": [
        {
          "internalType": "address",
          "name": "_beneficiary",
          "type": "address"
        }
      ],
      "name": "getVaultIdsAsBeneficiary",
      "outputs": [
        {
          "internalType": "uint256[]",
          "name": "",
          "type": "uint256[]"
        }
      ],
      "stateMutability": "view",
      "type": "function"
    },
    {
      "inputs": [
        {
          "internalType": "address",
          "name": "_funder",
          "type": "address"
        }
      ],
      "name": "getVaultIdsFundedByUser",
      "outputs": [
        {
          "internalType": "uint256[]",
          "name": "",
          "type": "uint256[]"
        }
      ],
      "stateMutability": "view",
      "type": "function"
    },
    {
      "inputs": [
        {
          "internalType": "uint256",
          "name": "_vaultId",
          "type": "uint256"
        }
      ],
      "name": "releaseNextMilestone",
      "outputs": [],
      "stateMutability": "nonpayable",
      "type": "function"
    },
    {
      "inputs": [
        {
          "internalType": "uint256",
          "name": "",
          "type": "uint256"
        }
      ],
      "name": "vaults",
      "outputs": [
        {
          "internalType": "address",
          "name": "funder",
          "type": "address"
        },
        {
          "internalType": "address",
          "name": "beneficiary",
          "type": "address"
        },
        {
          "internalType": "contract IERC20",
          "name": "token",
          "type": "address"
        },
        {
          "internalType": "enum VaultFactory.VaultType",
          "name": "vaultType",
          "type": "uint8"
        },
        {
          "internalType": "uint256",
          "name": "totalAmount",
          "type": "uint256"
        },
        {
          "internalType": "uint256",
          "name": "amountWithdrawn",
          "type": "uint256"
        },
        {
          "internalType": "string",
          "name": "termsCID",
          "type": "string"
        },
        {
          "internalType": "bool",
          "name": "finalized",
          "type": "bool"
        },
        {
          "internalType": "uint256",
          "name": "releaseTime",
          "type": "uint256"
        },
        {
          "internalType": "uint256",
          "name": "nextMilestoneToPay",
          "type": "uint256"
        }
      ],
      "stateMutability": "view",
      "type": "function"
    }
  ],
  "bytecode": "0x60808060405234601a576001600055611b0490816100208239f35b600080fdfe6080604052600436101561001257600080fd5b60003560e01c80633de01aeb146114c85780633deb506c1461126c578063638af63e1461104e5780637937a5fc1461100457806381a1f9ce14610ad25780638c64ea4a146109f9578063c0a9d8bd146109bf578063c0b579c01461013a578063c8a107b2146100e85763ce391f731461008a57600080fd5b346100e35760403660031901126100e3576100a361171d565b6001600160a01b03166000908152600360205260409020805460243591908210156100e3576020916100d491611790565b90549060031b1c604051908152f35b600080fd5b346100e35760203660031901126100e3576001600160a01b0361010961171d565b1660005260026020526101366101226040600020611a61565b604051918291602083526020830190611930565b0390f35b346100e35760203660031901126100e357600435600061016060405161015f81611801565b8281528260208201528260408201528260608201528260808201528260a0820152606060c08201528260e0820152826101008201526060610120820152606061014082015201526001548110156109ae576101b9906117a8565b506040516101c681611801565b81546001600160a01b039081168252600183015481166020830190815260028085015492831660408501908152919260608501929160a09190911c60ff169081101561099857825260038501549160808501928352600486015460a086019081526102336005880161183e565b9060c0870191825260ff6006890154169460e088019515158652600789015493610100890194855261026760088b01611a61565b956101208a0196875260098b019a604051809c8d91602082549182815201916000526020600020906000915b81601f8401106107b057549181811061079a575b818110610781575b818110610768575b81811061074f575b818110610737575b81811061071e575b818110610705575b8181106106ec575b8181106106d3575b8181106106ba575b8181106106a1575b818110610688575b81811061066f575b818110610656575b81811061063d575b818110610624575b81811061060b575b8181106105f2575b8181106105d9575b8181106105c0575b8181106105a7575b81811061058e575b818110610575575b81811061055c575b818110610543575b81811061052a575b818110610511575b8181106104f8575b8181106104df575b8181106104c6575b8181106104ad575b1061049d575b50036103a9908d61181d565b6101408b019b8c52600a01546101608b019081526040805160208082529c516001600160a01b039081169d82019d909d529a518c16908b015290519099166060890152519697966103fe9060808a01906118e2565b5160a08801525160c08701525160e0860161018090526101a08601610422916118ef565b925115156101008601525161012085015251838203601f190161014085015261044b9190611930565b925190601f1983850301610160840152815193848152602001916020016000945b808610610483575050829350516101808301520390f35b90926020806001928651151581520194019501949061046c565b60f81c151581526020018e61039d565b92602060019160ff8560f01c1615158152019301610397565b92602060019160ff8560e81c161515815201930161038f565b92602060019160ff8560e01c1615158152019301610387565b92602060019160ff8560d81c161515815201930161037f565b92602060019160ff8560d01c1615158152019301610377565b92602060019160ff8560c81c161515815201930161036f565b92602060019160ff8560c01c1615158152019301610367565b92602060019160ff8560b81c161515815201930161035f565b92602060019160ff8560b01c1615158152019301610357565b92602060019160ff8560a81c161515815201930161034f565b92602060019160ff8560a01c1615158152019301610347565b92602060019160ff8560981c161515815201930161033f565b92602060019160ff8560901c1615158152019301610337565b92602060019160ff8560881c161515815201930161032f565b92602060019160ff8560801c1615158152019301610327565b92602060019160ff8560781c161515815201930161031f565b92602060019160ff8560701c1615158152019301610317565b92602060019160ff8560681c161515815201930161030f565b92602060019160ff8560601c1615158152019301610307565b92602060019160ff8560581c16151581520193016102ff565b92602060019160ff8560501c16151581520193016102f7565b92602060019160ff8560481c16151581520193016102ef565b92602060019160ff8560401c16151581520193016102e7565b92602060019160ff8560381c16151581520193016102df565b92602060019160ff8560301c16151581520193016102d7565b92602060019160ff8560281c16151581520193016102cf565b92602060019160ff85831c16151581520193016102c7565b92602060019160ff8560181c16151581520193016102bf565b92602060019160ff8560101c16151581520193016102b7565b92602060019160ff8560081c16151581520193016102af565b92602060019160ff8516151581520193016102a7565b935090916001610400602092865460ff81161515825260ff8160081c1615158583015260ff8160101c161515604083015260ff8160181c161515606083015260ff81861c161515608083015260ff8160281c16151560a083015260ff8160301c16151560c083015260ff8160381c16151560e083015260ff8160401c16151561010083015260ff8160481c16151561012083015260ff8160501c16151561014083015260ff8160581c16151561016083015260ff8160601c16151561018083015260ff8160681c1615156101a083015260ff8160701c1615156101c083015260ff8160781c1615156101e083015260ff8160801c16151561020083015260ff8160881c16151561022083015260ff8160901c16151561024083015260ff8160981c16151561026083015260ff8160a01c16151561028083015260ff8160a81c1615156102a083015260ff8160b01c1615156102c083015260ff8160b81c1615156102e083015260ff8160c01c16151561030083015260ff8160c81c16151561032083015260ff8160d01c16151561034083015260ff8160d81c16151561036083015260ff8160e01c16151561038083015260ff8160e81c1615156103a083015260ff8160f01c1615156103c083015260f81c15156103e08201520194019201908f9392610293565b634e487b7160e01b600052602160045260246000fd5b6319d2ee1360e01b60005260046000fd5b346100e35760203660031901126100e3576001600160a01b036109e061171d565b1660005260036020526101366101226040600020611a61565b346100e35760203660031901126100e3576004356001548110156100e357610a20906117a8565b50805460018201546002830154600384015460048501546001600160a01b039384169594909316939092610aba90610a5a6005840161183e565b9060ff60068501541695610a9d600a6007870154960154966040519a8b9a8b5260208b015260018060a01b03811660408b015260ff60608b019160a01c166118e2565b608088015260a087015261014060c08701526101408601906118ef565b92151560e08501526101008401526101208301520390f35b346100e35760803660031901126100e357610aeb61171d565b6024356001600160a01b03811691908290036100e3576044356001600160401b0381116100e357610b20903690600401611760565b926064356001600160401b0381116100e357610b40903690600401611733565b6001600160a01b039094169490938515610ff3578115610fe25760009360005b838110610fa0575060015495610b74611964565b5080546001600160a01b0319908116331782556001820180549091168a179055600281018054600383018990556001600160a81b0319166001600160a01b039790971696909617600160a01b1786559260058401916001600160401b038211610eaa578190610be384546117c7565b601f8111610f63575b50600090601f8311600114610efd57600092610ef2575b50508160011b916000199060031b1c19161790555b60088201906001600160401b038411610eaa57600160401b8411610eaa578154848355808510610ed4575b509060005260206000209060005b848110610ec0575050506009610c7f610c6984611a4a565b93610c77604051958661181d565b808552611a4a565b602084019290601f1901368437019151906001600160401b038211610eaa57600160401b8211610eaa578254828455808310610e5a575b509160005260206000208160051c9160005b838110610e145750601f198116900380610dc9575b505091546040516323b872dd60e01b815233600482015230602482015260448101859052925060209150829060649082906000906001600160a01b03165af18015610dbd57610d90575b50336000526002602052610d3f8260406000206119f8565b826000526003602052610d568260406000206119f8565b6040519283526001602084015260408301527f3df95abe764bcdce4aa078c8727a097336ee9632c1c1ee9f1923237d2d49e83e60603393a3005b610db19060203d602011610db6575b610da9818361181d565b8101906119e0565b610d27565b503d610d9f565b6040513d6000823e3d90fd5b9260009360005b818110610de557505050015584808080610cdd565b9091946020610e0a6001928489511515919060ff809160031b9316831b921b19161790565b9601929101610dd0565b6000805b60208110610e2d575083820155600101610cc8565b95906020610e516001928985511515919060ff809160031b9316831b921b19161790565b92019601610e18565b610e8790846000526020600020601f80860160051c82019281871680610e8d575b500160051c01906119c9565b87610cb6565b6000198501908154906000199060200360031b1c1690558c610e7b565b634e487b7160e01b600052604160045260246000fd5b600190602083359301928185015501610c51565b610eec908360005285602060002091820191016119c9565b88610c43565b013590508a80610c03565b84825260208220925090601f198416815b818110610f4b5750908460019594939210610f31575b505050811b019055610c18565b0135600019600384901b60f8161c191690558a8080610f24565b91936020600181928787013581550195019201610f0e565b610f9090856000526020600020601f850160051c81019160208610610f96575b601f0160051c01906119c9565b8b610bec565b9091508190610f83565b94610fac868584611a2d565b3515610fd157610fca600191610fc3888786611a2d565b3590611a3d565b9501610b60565b63738606af60e01b60005260046000fd5b6350018ba960e11b60005260046000fd5b63d92e233d60e01b60005260046000fd5b346100e35760403660031901126100e35761101d61171d565b6001600160a01b03166000908152600260205260409020805460243591908210156100e3576020916100d491611790565b346100e35760203660031901126100e35760043561106a611aac565b6001548110156109ae5761107d816117a8565b5080546001600160a01b0316330361125b576006810160ff81541661124a57600a82019182549060088101938454831015610fe2576110bc8386611790565b90549060031b1c926009830180548210156112345760005260206000208160051c019060f882549160031b169060ff6001831b921b1916179055805494600019861461121e57600161116e96018092556004830161111b858254611a3d565b9055541461120e575b60028101546001909101805460405163a9059cbb60e01b81526001600160a01b03918216600482015260248101859052959192602092879290911690829060009082906044820190565b03925af1938415610dbd57602086927fc566b56f9fa851c8c74d53c6fae23cd074cf2e73d4ce69107c722ef3c408408d9260ff976111f3575b50546040519485526001600160a01b031693a354166111c8575b6001600055005b7f2fa311dce014989819445737ed8326c4710fac502c76951646f4df9f223faa84600080a2806111c1565b61120990833d8511610db657610da9818361181d565b6111a7565b825460ff19166001178355611124565b634e487b7160e01b600052601160045260246000fd5b634e487b7160e01b600052603260045260246000fd5b635df822fb60e01b60005260046000fd5b634510351d60e11b60005260046000fd5b346100e35760603660031901126100e3576004356024356001600160401b0381116100e35761129f903690600401611760565b906044356001600160401b0381116100e3576112bf903690600401611760565b91906112c9611aac565b6001548510156109ae576112dc856117a8565b5080549092906001600160a01b0316330361125b57600783015442106114b757600683019485549560ff871661124a578582036114a65760009660005b87811061148d57506003860154880361147c5760ff19166001179055600484018690558695949392919060005b8181106113a65787807f40d8c854b6d5329fd5fccae04f5a931d7529963fbab81aced7337394e737cb4d60208a604051908152a27f2fa311dce014989819445737ed8326c4710fac502c76951646f4df9f223faa84600080a26001600055005b90919293949596506113b9818786611a2d565b356113cf575b6001019087969594939291611346565b60028501546001600160a01b0316906113e9818486611a2d565b35916001600160a01b03831683036100e3576114439260209161140d848b8a611a2d565b60405163a9059cbb60e01b81526001600160a01b0390931660048401523560248301529093849190829060009082906044820190565b03925af1918215610dbd5760019261145e575b5090506113bf565b6114759060203d8111610db657610da9818361181d565b5089611456565b63f7e6651360e01b60005260046000fd5b9761149f600191610fc38b8b8a611a2d565b9801611319565b63a121188760e01b60005260046000fd5b63b44ce7d360e01b60005260046000fd5b346100e35760803660031901126100e3576114e161171d565b60243590604435906064356001600160401b0381116100e357611508903690600401611733565b8415610fd157428411156114b757600560015494611524611964565b5080546001600160a01b0319908116331782556001820180549091169055600281018054600383018a90556001600160a81b0319166001600160a01b0397909716969096178655600781019190915501916001600160401b038211610eaa57819061158f84546117c7565b601f81116116eb575b50600090601f83116001146116855760009261167a575b50508160011b916000199060031b1c19161790555b546040516323b872dd60e01b81523360048201523060248201526044810184905290602090829060649082906000906001600160a01b03165af18015610dbd5761165d575b503360005260026020526116218160406000206119f8565b60405191600083526000602084015260408301527f3df95abe764bcdce4aa078c8727a097336ee9632c1c1ee9f1923237d2d49e83e60603393a3005b6116759060203d602011610db657610da9818361181d565b611609565b0135905086806115af565b84825260208220925090601f198416815b8181106116d357509084600195949392106116b9575b505050811b0190556115c4565b0135600019600384901b60f8161c191690558680806116ac565b91936020600181928787013581550195019201611696565b61171790856000526020600020601f850160051c81019160208610610f9657601f0160051c01906119c9565b87611598565b600435906001600160a01b03821682036100e357565b9181601f840112156100e3578235916001600160401b0383116100e357602083818601950101116100e357565b9181601f840112156100e3578235916001600160401b0383116100e3576020808501948460051b0101116100e357565b80548210156112345760005260206000200190600090565b600154811015611234576001600052600b602060002091020190600090565b90600182811c921680156117f7575b60208310146117e157565b634e487b7160e01b600052602260045260246000fd5b91607f16916117d6565b61018081019081106001600160401b03821117610eaa57604052565b90601f801991011681019081106001600160401b03821117610eaa57604052565b9060405191826000825492611852846117c7565b80845293600181169081156118c05750600114611879575b506118779250038361181d565b565b90506000929192526020600020906000915b8183106118a4575050906020611877928201013861186a565b602091935080600191548385890101520191019091849261188b565b90506020925061187794915060ff191682840152151560051b8201013861186a565b9060028210156109985752565b919082519283825260005b84811061191b575050826000602080949584010152601f8019910116010190565b806020809284010151828286010152016118fa565b906020808351928381520192019060005b81811061194e5750505090565b8251845260209384019390920191600101611941565b600154600160401b811015610eaa576001810160015560006001548210156119b55760019052600b027fb10e2d527612073b26eecdfd717e6a320cf44b4afac2b0732d9fcbe2b7fa0cf60190600090565b634e487b7160e01b81526032600452602490fd5b8181106119d4575050565b600081556001016119c9565b908160209103126100e3575180151581036100e35790565b8054600160401b811015610eaa57611a1591600182018155611790565b819291549060031b91821b91600019901b1916179055565b91908110156112345760051b0190565b9190820180921161121e57565b6001600160401b038111610eaa5760051b60200190565b906040519182815491828252602082019060005260206000209260005b818110611a935750506118779250038361181d565b8454835260019485019487945060209093019201611a7e565b600260005414611abd576002600055565b633ee5aeb560e01b60005260046000fdfea26469706673582212206111f6aa0273f498b930b6e65f8347bbceea46c9d1ef7f64248452212678638864736f6c634300081c0033",
  "linkReferences": {},
  "deployedLinkReferences": {}
}